{
	"contracts/CovidNaccineTracker.sol": {
		"CovidVaccineTracker": {
			"abi": [
				{
					"inputs": [
						{
							"internalType": "string",
							"name": "_name",
							"type": "string"
						},
						{
							"internalType": "uint256",
							"name": "_age",
							"type": "uint256"
						},
						{
							"internalType": "string",
							"name": "_gender",
							"type": "string"
						},
						{
							"internalType": "uint256",
							"name": "_idProof",
							"type": "uint256"
						},
						{
							"internalType": "string",
							"name": "_vaccineName",
							"type": "string"
						},
						{
							"internalType": "uint256",
							"name": "_vaccineReferenceId",
							"type": "uint256"
						},
						{
							"internalType": "uint256",
							"name": "_dateOfVaccine",
							"type": "uint256"
						}
					],
					"name": "addReceipientWithForFirstDose",
					"outputs": [],
					"stateMutability": "nonpayable",
					"type": "function"
				},
				{
					"inputs": [
						{
							"internalType": "string",
							"name": "_name",
							"type": "string"
						}
					],
					"name": "updateVaccineDosage",
					"outputs": [
						{
							"internalType": "string",
							"name": "",
							"type": "string"
						}
					],
					"stateMutability": "pure",
					"type": "function"
				}
			],
			"devdoc": {
				"kind": "dev",
				"methods": {},
				"version": 1
			},
			"evm": {
				"assembly": "    /* \"contracts/CovidNaccineTracker.sol\":61:1267  contract  CovidVaccineTracker{... */\n  mstore(0x40, 0x80)\n  callvalue\n  dup1\n  iszero\n  tag_1\n  jumpi\n  0x00\n  dup1\n  revert\ntag_1:\n  pop\n  dataSize(sub_0)\n  dup1\n  dataOffset(sub_0)\n  0x00\n  codecopy\n  0x00\n  return\nstop\n\nsub_0: assembly {\n        /* \"contracts/CovidNaccineTracker.sol\":61:1267  contract  CovidVaccineTracker{... */\n      mstore(0x40, 0x80)\n      callvalue\n      dup1\n      iszero\n      tag_1\n      jumpi\n      0x00\n      dup1\n      revert\n    tag_1:\n      pop\n      jumpi(tag_2, lt(calldatasize, 0x04))\n      shr(0xe0, calldataload(0x00))\n      dup1\n      0x4040730e\n      eq\n      tag_3\n      jumpi\n      dup1\n      0xfa6d481e\n      eq\n      tag_4\n      jumpi\n    tag_2:\n      0x00\n      dup1\n      revert\n        /* \"contracts/CovidNaccineTracker.sol\":1072:1256  function updateVaccineDosage(string memory _name) public pure returns(string memory){... */\n    tag_3:\n      tag_5\n      0x04\n      dup1\n      calldatasize\n      sub\n      dup2\n      add\n      swap1\n      tag_6\n      swap2\n      swap1\n      tag_7\n      jump\t// in\n    tag_6:\n      tag_8\n      jump\t// in\n    tag_5:\n      mload(0x40)\n      tag_9\n      swap2\n      swap1\n      tag_10\n      jump\t// in\n    tag_9:\n      mload(0x40)\n      dup1\n      swap2\n      sub\n      swap1\n      return\n        /* \"contracts/CovidNaccineTracker.sol\":484:1066  function addReceipientWithForFirstDose(string memory _name,uint _age,string  memory _gender, uint _idProof,string memory _vaccineName,uint _vaccineReferenceId, uint _dateOfVaccine)public{... */\n    tag_4:\n      tag_11\n      0x04\n      dup1\n      calldatasize\n      sub\n      dup2\n      add\n      swap1\n      tag_12\n      swap2\n      swap1\n      tag_13\n      jump\t// in\n    tag_12:\n      tag_14\n      jump\t// in\n    tag_11:\n      stop\n        /* \"contracts/CovidNaccineTracker.sol\":1072:1256  function updateVaccineDosage(string memory _name) public pure returns(string memory){... */\n    tag_8:\n        /* \"contracts/CovidNaccineTracker.sol\":1142:1155  string memory */\n      0x60\n        /* \"contracts/CovidNaccineTracker.sol\":1197:1202  _name */\n      dup2\n        /* \"contracts/CovidNaccineTracker.sol\":1180:1250  abi.encodePacked(_name,\" successfully vaccined with \",\"first\",\" dose\") */\n      add(0x20, mload(0x40))\n      tag_16\n      swap2\n      swap1\n      tag_17\n      jump\t// in\n    tag_16:\n      mload(0x40)\n      0x20\n      dup2\n      dup4\n      sub\n      sub\n      dup2\n      mstore\n      swap1\n      0x40\n      mstore\n        /* \"contracts/CovidNaccineTracker.sol\":1166:1251  return string(abi.encodePacked(_name,\" successfully vaccined with \",\"first\",\" dose\")) */\n      swap1\n      pop\n        /* \"contracts/CovidNaccineTracker.sol\":1072:1256  function updateVaccineDosage(string memory _name) public pure returns(string memory){... */\n      swap2\n      swap1\n      pop\n      jump\t// out\n        /* \"contracts/CovidNaccineTracker.sol\":484:1066  function addReceipientWithForFirstDose(string memory _name,uint _age,string  memory _gender, uint _idProof,string memory _vaccineName,uint _vaccineReferenceId, uint _dateOfVaccine)public{... */\n    tag_14:\n        /* \"contracts/CovidNaccineTracker.sol\":677:711  Beneficiary storage newBeneficiary */\n      0x00\n        /* \"contracts/CovidNaccineTracker.sol\":712:725  beneficiaries */\n      dup1\n        /* \"contracts/CovidNaccineTracker.sol\":726:731  _name */\n      dup9\n        /* \"contracts/CovidNaccineTracker.sol\":712:732  beneficiaries[_name] */\n      mload(0x40)\n      tag_19\n      swap2\n      swap1\n      tag_20\n      jump\t// in\n    tag_19:\n      swap1\n      dup2\n      mstore\n      0x20\n      add\n      mload(0x40)\n      dup1\n      swap2\n      sub\n      swap1\n      keccak256\n        /* \"contracts/CovidNaccineTracker.sol\":677:732  Beneficiary storage newBeneficiary=beneficiaries[_name] */\n      swap1\n      pop\n        /* \"contracts/CovidNaccineTracker.sol\":770:775  _name */\n      dup8\n        /* \"contracts/CovidNaccineTracker.sol\":739:753  newBeneficiary */\n      dup2\n        /* \"contracts/CovidNaccineTracker.sol\":739:769  newBeneficiary.beneficiaryName */\n      0x00\n      add\n        /* \"contracts/CovidNaccineTracker.sol\":739:775  newBeneficiary.beneficiaryName=_name */\n      swap1\n      dup2\n      tag_21\n      swap2\n      swap1\n      tag_22\n      jump\t// in\n    tag_21:\n      pop\n        /* \"contracts/CovidNaccineTracker.sol\":802:806  _age */\n      dup7\n        /* \"contracts/CovidNaccineTracker.sol\":782:796  newBeneficiary */\n      dup2\n        /* \"contracts/CovidNaccineTracker.sol\":782:801  newBeneficiary.bAge */\n      0x01\n      add\n        /* \"contracts/CovidNaccineTracker.sol\":782:806  newBeneficiary.bAge=_age */\n      dup2\n      swap1\n      sstore\n      pop\n        /* \"contracts/CovidNaccineTracker.sol\":836:843  _gender */\n      dup6\n        /* \"contracts/CovidNaccineTracker.sol\":813:827  newBeneficiary */\n      dup2\n        /* \"contracts/CovidNaccineTracker.sol\":813:835  newBeneficiary.bGender */\n      0x02\n      add\n        /* \"contracts/CovidNaccineTracker.sol\":813:843  newBeneficiary.bGender=_gender */\n      swap1\n      dup2\n      tag_23\n      swap2\n      swap1\n      tag_22\n      jump\t// in\n    tag_23:\n      pop\n        /* \"contracts/CovidNaccineTracker.sol\":874:882  _idProof */\n      dup5\n        /* \"contracts/CovidNaccineTracker.sol\":850:864  newBeneficiary */\n      dup2\n        /* \"contracts/CovidNaccineTracker.sol\":850:873  newBeneficiary.bIdProof */\n      0x03\n      add\n        /* \"contracts/CovidNaccineTracker.sol\":850:882  newBeneficiary.bIdProof=_idProof */\n      dup2\n      swap1\n      sstore\n      pop\n        /* \"contracts/CovidNaccineTracker.sol\":927:939  _vaccineName */\n      dup4\n        /* \"contracts/CovidNaccineTracker.sol\":892:905  beneficiaries */\n      0x00\n        /* \"contracts/CovidNaccineTracker.sol\":906:911  _name */\n      dup10\n        /* \"contracts/CovidNaccineTracker.sol\":892:912  beneficiaries[_name] */\n      mload(0x40)\n      tag_24\n      swap2\n      swap1\n      tag_20\n      jump\t// in\n    tag_24:\n      swap1\n      dup2\n      mstore\n      0x20\n      add\n      mload(0x40)\n      dup1\n      swap2\n      sub\n      swap1\n      keccak256\n        /* \"contracts/CovidNaccineTracker.sol\":892:926  beneficiaries[_name]. bVaccineName */\n      0x04\n      add\n        /* \"contracts/CovidNaccineTracker.sol\":892:939  beneficiaries[_name]. bVaccineName=_vaccineName */\n      swap1\n      dup2\n      tag_25\n      swap2\n      swap1\n      tag_22\n      jump\t// in\n    tag_25:\n      pop\n        /* \"contracts/CovidNaccineTracker.sol\":986:1005  _vaccineReferenceId */\n      dup3\n        /* \"contracts/CovidNaccineTracker.sol\":946:959  beneficiaries */\n      0x00\n        /* \"contracts/CovidNaccineTracker.sol\":960:965  _name */\n      dup10\n        /* \"contracts/CovidNaccineTracker.sol\":946:966  beneficiaries[_name] */\n      mload(0x40)\n      tag_26\n      swap2\n      swap1\n      tag_20\n      jump\t// in\n    tag_26:\n      swap1\n      dup2\n      mstore\n      0x20\n      add\n      mload(0x40)\n      dup1\n      swap2\n      sub\n      swap1\n      keccak256\n        /* \"contracts/CovidNaccineTracker.sol\":946:985  beneficiaries[_name].vaccineReferenceId */\n      0x05\n      add\n        /* \"contracts/CovidNaccineTracker.sol\":946:1005  beneficiaries[_name].vaccineReferenceId=_vaccineReferenceId */\n      dup2\n      swap1\n      sstore\n      pop\n        /* \"contracts/CovidNaccineTracker.sol\":1048:1062  _dateOfVaccine */\n      dup2\n        /* \"contracts/CovidNaccineTracker.sol\":1012:1025  beneficiaries */\n      0x00\n        /* \"contracts/CovidNaccineTracker.sol\":1026:1031  _name */\n      dup10\n        /* \"contracts/CovidNaccineTracker.sol\":1012:1032  beneficiaries[_name] */\n      mload(0x40)\n      tag_27\n      swap2\n      swap1\n      tag_20\n      jump\t// in\n    tag_27:\n      swap1\n      dup2\n      mstore\n      0x20\n      add\n      mload(0x40)\n      dup1\n      swap2\n      sub\n      swap1\n      keccak256\n        /* \"contracts/CovidNaccineTracker.sol\":1012:1047  beneficiaries[_name].bDateOfVaccine */\n      0x06\n      add\n        /* \"contracts/CovidNaccineTracker.sol\":1012:1062  beneficiaries[_name].bDateOfVaccine=_dateOfVaccine */\n      dup2\n      swap1\n      sstore\n      pop\n        /* \"contracts/CovidNaccineTracker.sol\":670:1066  {... */\n      pop\n        /* \"contracts/CovidNaccineTracker.sol\":484:1066  function addReceipientWithForFirstDose(string memory _name,uint _age,string  memory _gender, uint _idProof,string memory _vaccineName,uint _vaccineReferenceId, uint _dateOfVaccine)public{... */\n      pop\n      pop\n      pop\n      pop\n      pop\n      pop\n      pop\n      jump\t// out\n        /* \"#utility.yul\":7:82   */\n    tag_28:\n        /* \"#utility.yul\":40:46   */\n      0x00\n        /* \"#utility.yul\":73:75   */\n      0x40\n        /* \"#utility.yul\":67:76   */\n      mload\n        /* \"#utility.yul\":57:76   */\n      swap1\n      pop\n        /* \"#utility.yul\":7:82   */\n      swap1\n      jump\t// out\n        /* \"#utility.yul\":88:205   */\n    tag_29:\n        /* \"#utility.yul\":197:198   */\n      0x00\n        /* \"#utility.yul\":194:195   */\n      dup1\n        /* \"#utility.yul\":187:199   */\n      revert\n        /* \"#utility.yul\":211:328   */\n    tag_30:\n        /* \"#utility.yul\":320:321   */\n      0x00\n        /* \"#utility.yul\":317:318   */\n      dup1\n        /* \"#utility.yul\":310:322   */\n      revert\n        /* \"#utility.yul\":334:451   */\n    tag_31:\n        /* \"#utility.yul\":443:444   */\n      0x00\n        /* \"#utility.yul\":440:441   */\n      dup1\n        /* \"#utility.yul\":433:445   */\n      revert\n        /* \"#utility.yul\":457:574   */\n    tag_32:\n        /* \"#utility.yul\":566:567   */\n      0x00\n        /* \"#utility.yul\":563:564   */\n      dup1\n        /* \"#utility.yul\":556:568   */\n      revert\n        /* \"#utility.yul\":580:682   */\n    tag_33:\n        /* \"#utility.yul\":621:627   */\n      0x00\n        /* \"#utility.yul\":672:674   */\n      0x1f\n        /* \"#utility.yul\":668:675   */\n      not\n        /* \"#utility.yul\":663:665   */\n      0x1f\n        /* \"#utility.yul\":656:661   */\n      dup4\n        /* \"#utility.yul\":652:666   */\n      add\n        /* \"#utility.yul\":648:676   */\n      and\n        /* \"#utility.yul\":638:676   */\n      swap1\n      pop\n        /* \"#utility.yul\":580:682   */\n      swap2\n      swap1\n      pop\n      jump\t// out\n        /* \"#utility.yul\":688:868   */\n    tag_34:\n        /* \"#utility.yul\":736:813   */\n      0x4e487b7100000000000000000000000000000000000000000000000000000000\n        /* \"#utility.yul\":733:734   */\n      0x00\n        /* \"#utility.yul\":726:814   */\n      mstore\n        /* \"#utility.yul\":833:837   */\n      0x41\n        /* \"#utility.yul\":830:831   */\n      0x04\n        /* \"#utility.yul\":823:838   */\n      mstore\n        /* \"#utility.yul\":857:861   */\n      0x24\n        /* \"#utility.yul\":854:855   */\n      0x00\n        /* \"#utility.yul\":847:862   */\n      revert\n        /* \"#utility.yul\":874:1155   */\n    tag_35:\n        /* \"#utility.yul\":957:984   */\n      tag_82\n        /* \"#utility.yul\":979:983   */\n      dup3\n        /* \"#utility.yul\":957:984   */\n      tag_33\n      jump\t// in\n    tag_82:\n        /* \"#utility.yul\":949:955   */\n      dup2\n        /* \"#utility.yul\":945:985   */\n      add\n        /* \"#utility.yul\":1087:1093   */\n      dup2\n        /* \"#utility.yul\":1075:1085   */\n      dup2\n        /* \"#utility.yul\":1072:1094   */\n      lt\n        /* \"#utility.yul\":1051:1069   */\n      0xffffffffffffffff\n        /* \"#utility.yul\":1039:1049   */\n      dup3\n        /* \"#utility.yul\":1036:1070   */\n      gt\n        /* \"#utility.yul\":1033:1095   */\n      or\n        /* \"#utility.yul\":1030:1118   */\n      iszero\n      tag_83\n      jumpi\n        /* \"#utility.yul\":1098:1116   */\n      tag_84\n      tag_34\n      jump\t// in\n    tag_84:\n        /* \"#utility.yul\":1030:1118   */\n    tag_83:\n        /* \"#utility.yul\":1138:1148   */\n      dup1\n        /* \"#utility.yul\":1134:1136   */\n      0x40\n        /* \"#utility.yul\":1127:1149   */\n      mstore\n        /* \"#utility.yul\":917:1155   */\n      pop\n        /* \"#utility.yul\":874:1155   */\n      pop\n      pop\n      jump\t// out\n        /* \"#utility.yul\":1161:1290   */\n    tag_36:\n        /* \"#utility.yul\":1195:1201   */\n      0x00\n        /* \"#utility.yul\":1222:1242   */\n      tag_86\n      tag_28\n      jump\t// in\n    tag_86:\n        /* \"#utility.yul\":1212:1242   */\n      swap1\n      pop\n        /* \"#utility.yul\":1251:1284   */\n      tag_87\n        /* \"#utility.yul\":1279:1283   */\n      dup3\n        /* \"#utility.yul\":1271:1277   */\n      dup3\n        /* \"#utility.yul\":1251:1284   */\n      tag_35\n      jump\t// in\n    tag_87:\n        /* \"#utility.yul\":1161:1290   */\n      swap2\n      swap1\n      pop\n      jump\t// out\n        /* \"#utility.yul\":1296:1604   */\n    tag_37:\n        /* \"#utility.yul\":1358:1362   */\n      0x00\n        /* \"#utility.yul\":1448:1466   */\n      0xffffffffffffffff\n        /* \"#utility.yul\":1440:1446   */\n      dup3\n        /* \"#utility.yul\":1437:1467   */\n      gt\n        /* \"#utility.yul\":1434:1490   */\n      iszero\n      tag_89\n      jumpi\n        /* \"#utility.yul\":1470:1488   */\n      tag_90\n      tag_34\n      jump\t// in\n    tag_90:\n        /* \"#utility.yul\":1434:1490   */\n    tag_89:\n        /* \"#utility.yul\":1508:1537   */\n      tag_91\n        /* \"#utility.yul\":1530:1536   */\n      dup3\n        /* \"#utility.yul\":1508:1537   */\n      tag_33\n      jump\t// in\n    tag_91:\n        /* \"#utility.yul\":1500:1537   */\n      swap1\n      pop\n        /* \"#utility.yul\":1592:1596   */\n      0x20\n        /* \"#utility.yul\":1586:1590   */\n      dup2\n        /* \"#utility.yul\":1582:1597   */\n      add\n        /* \"#utility.yul\":1574:1597   */\n      swap1\n      pop\n        /* \"#utility.yul\":1296:1604   */\n      swap2\n      swap1\n      pop\n      jump\t// out\n        /* \"#utility.yul\":1610:1756   */\n    tag_38:\n        /* \"#utility.yul\":1707:1713   */\n      dup3\n        /* \"#utility.yul\":1702:1705   */\n      dup2\n        /* \"#utility.yul\":1697:1700   */\n      dup4\n        /* \"#utility.yul\":1684:1714   */\n      calldatacopy\n        /* \"#utility.yul\":1748:1749   */\n      0x00\n        /* \"#utility.yul\":1739:1745   */\n      dup4\n        /* \"#utility.yul\":1734:1737   */\n      dup4\n        /* \"#utility.yul\":1730:1746   */\n      add\n        /* \"#utility.yul\":1723:1750   */\n      mstore\n        /* \"#utility.yul\":1610:1756   */\n      pop\n      pop\n      pop\n      jump\t// out\n        /* \"#utility.yul\":1762:2187   */\n    tag_39:\n        /* \"#utility.yul\":1840:1845   */\n      0x00\n        /* \"#utility.yul\":1865:1931   */\n      tag_94\n        /* \"#utility.yul\":1881:1930   */\n      tag_95\n        /* \"#utility.yul\":1923:1929   */\n      dup5\n        /* \"#utility.yul\":1881:1930   */\n      tag_37\n      jump\t// in\n    tag_95:\n        /* \"#utility.yul\":1865:1931   */\n      tag_36\n      jump\t// in\n    tag_94:\n        /* \"#utility.yul\":1856:1931   */\n      swap1\n      pop\n        /* \"#utility.yul\":1954:1960   */\n      dup3\n        /* \"#utility.yul\":1947:1952   */\n      dup2\n        /* \"#utility.yul\":1940:1961   */\n      mstore\n        /* \"#utility.yul\":1992:1996   */\n      0x20\n        /* \"#utility.yul\":1985:1990   */\n      dup2\n        /* \"#utility.yul\":1981:1997   */\n      add\n        /* \"#utility.yul\":2030:2033   */\n      dup5\n        /* \"#utility.yul\":2021:2027   */\n      dup5\n        /* \"#utility.yul\":2016:2019   */\n      dup5\n        /* \"#utility.yul\":2012:2028   */\n      add\n        /* \"#utility.yul\":2009:2034   */\n      gt\n        /* \"#utility.yul\":2006:2118   */\n      iszero\n      tag_96\n      jumpi\n        /* \"#utility.yul\":2037:2116   */\n      tag_97\n      tag_32\n      jump\t// in\n    tag_97:\n        /* \"#utility.yul\":2006:2118   */\n    tag_96:\n        /* \"#utility.yul\":2127:2181   */\n      tag_98\n        /* \"#utility.yul\":2174:2180   */\n      dup5\n        /* \"#utility.yul\":2169:2172   */\n      dup3\n        /* \"#utility.yul\":2164:2167   */\n      dup6\n        /* \"#utility.yul\":2127:2181   */\n      tag_38\n      jump\t// in\n    tag_98:\n        /* \"#utility.yul\":1846:2187   */\n      pop\n        /* \"#utility.yul\":1762:2187   */\n      swap4\n      swap3\n      pop\n      pop\n      pop\n      jump\t// out\n        /* \"#utility.yul\":2207:2547   */\n    tag_40:\n        /* \"#utility.yul\":2263:2268   */\n      0x00\n        /* \"#utility.yul\":2312:2315   */\n      dup3\n        /* \"#utility.yul\":2305:2309   */\n      0x1f\n        /* \"#utility.yul\":2297:2303   */\n      dup4\n        /* \"#utility.yul\":2293:2310   */\n      add\n        /* \"#utility.yul\":2289:2316   */\n      slt\n        /* \"#utility.yul\":2279:2401   */\n      tag_100\n      jumpi\n        /* \"#utility.yul\":2320:2399   */\n      tag_101\n      tag_31\n      jump\t// in\n    tag_101:\n        /* \"#utility.yul\":2279:2401   */\n    tag_100:\n        /* \"#utility.yul\":2437:2443   */\n      dup2\n        /* \"#utility.yul\":2424:2444   */\n      calldataload\n        /* \"#utility.yul\":2462:2541   */\n      tag_102\n        /* \"#utility.yul\":2537:2540   */\n      dup5\n        /* \"#utility.yul\":2529:2535   */\n      dup3\n        /* \"#utility.yul\":2522:2526   */\n      0x20\n        /* \"#utility.yul\":2514:2520   */\n      dup7\n        /* \"#utility.yul\":2510:2527   */\n      add\n        /* \"#utility.yul\":2462:2541   */\n      tag_39\n      jump\t// in\n    tag_102:\n        /* \"#utility.yul\":2453:2541   */\n      swap2\n      pop\n        /* \"#utility.yul\":2269:2547   */\n      pop\n        /* \"#utility.yul\":2207:2547   */\n      swap3\n      swap2\n      pop\n      pop\n      jump\t// out\n        /* \"#utility.yul\":2553:3062   */\n    tag_7:\n        /* \"#utility.yul\":2622:2628   */\n      0x00\n        /* \"#utility.yul\":2671:2673   */\n      0x20\n        /* \"#utility.yul\":2659:2668   */\n      dup3\n        /* \"#utility.yul\":2650:2657   */\n      dup5\n        /* \"#utility.yul\":2646:2669   */\n      sub\n        /* \"#utility.yul\":2642:2674   */\n      slt\n        /* \"#utility.yul\":2639:2758   */\n      iszero\n      tag_104\n      jumpi\n        /* \"#utility.yul\":2677:2756   */\n      tag_105\n      tag_29\n      jump\t// in\n    tag_105:\n        /* \"#utility.yul\":2639:2758   */\n    tag_104:\n        /* \"#utility.yul\":2825:2826   */\n      0x00\n        /* \"#utility.yul\":2814:2823   */\n      dup3\n        /* \"#utility.yul\":2810:2827   */\n      add\n        /* \"#utility.yul\":2797:2828   */\n      calldataload\n        /* \"#utility.yul\":2855:2873   */\n      0xffffffffffffffff\n        /* \"#utility.yul\":2847:2853   */\n      dup2\n        /* \"#utility.yul\":2844:2874   */\n      gt\n        /* \"#utility.yul\":2841:2958   */\n      iszero\n      tag_106\n      jumpi\n        /* \"#utility.yul\":2877:2956   */\n      tag_107\n      tag_30\n      jump\t// in\n    tag_107:\n        /* \"#utility.yul\":2841:2958   */\n    tag_106:\n        /* \"#utility.yul\":2982:3045   */\n      tag_108\n        /* \"#utility.yul\":3037:3044   */\n      dup5\n        /* \"#utility.yul\":3028:3034   */\n      dup3\n        /* \"#utility.yul\":3017:3026   */\n      dup6\n        /* \"#utility.yul\":3013:3035   */\n      add\n        /* \"#utility.yul\":2982:3045   */\n      tag_40\n      jump\t// in\n    tag_108:\n        /* \"#utility.yul\":2972:3045   */\n      swap2\n      pop\n        /* \"#utility.yul\":2768:3055   */\n      pop\n        /* \"#utility.yul\":2553:3062   */\n      swap3\n      swap2\n      pop\n      pop\n      jump\t// out\n        /* \"#utility.yul\":3068:3167   */\n    tag_41:\n        /* \"#utility.yul\":3120:3126   */\n      0x00\n        /* \"#utility.yul\":3154:3159   */\n      dup2\n        /* \"#utility.yul\":3148:3160   */\n      mload\n        /* \"#utility.yul\":3138:3160   */\n      swap1\n      pop\n        /* \"#utility.yul\":3068:3167   */\n      swap2\n      swap1\n      pop\n      jump\t// out\n        /* \"#utility.yul\":3173:3342   */\n    tag_42:\n        /* \"#utility.yul\":3257:3268   */\n      0x00\n        /* \"#utility.yul\":3291:3297   */\n      dup3\n        /* \"#utility.yul\":3286:3289   */\n      dup3\n        /* \"#utility.yul\":3279:3298   */\n      mstore\n        /* \"#utility.yul\":3331:3335   */\n      0x20\n        /* \"#utility.yul\":3326:3329   */\n      dup3\n        /* \"#utility.yul\":3322:3336   */\n      add\n        /* \"#utility.yul\":3307:3336   */\n      swap1\n      pop\n        /* \"#utility.yul\":3173:3342   */\n      swap3\n      swap2\n      pop\n      pop\n      jump\t// out\n        /* \"#utility.yul\":3348:3594   */\n    tag_43:\n        /* \"#utility.yul\":3429:3430   */\n      0x00\n        /* \"#utility.yul\":3439:3552   */\n    tag_112:\n        /* \"#utility.yul\":3453:3459   */\n      dup4\n        /* \"#utility.yul\":3450:3451   */\n      dup2\n        /* \"#utility.yul\":3447:3460   */\n      lt\n        /* \"#utility.yul\":3439:3552   */\n      iszero\n      tag_114\n      jumpi\n        /* \"#utility.yul\":3538:3539   */\n      dup1\n        /* \"#utility.yul\":3533:3536   */\n      dup3\n        /* \"#utility.yul\":3529:3540   */\n      add\n        /* \"#utility.yul\":3523:3541   */\n      mload\n        /* \"#utility.yul\":3519:3520   */\n      dup2\n        /* \"#utility.yul\":3514:3517   */\n      dup5\n        /* \"#utility.yul\":3510:3521   */\n      add\n        /* \"#utility.yul\":3503:3542   */\n      mstore\n        /* \"#utility.yul\":3475:3477   */\n      0x20\n        /* \"#utility.yul\":3472:3473   */\n      dup2\n        /* \"#utility.yul\":3468:3478   */\n      add\n        /* \"#utility.yul\":3463:3478   */\n      swap1\n      pop\n        /* \"#utility.yul\":3439:3552   */\n      jump(tag_112)\n    tag_114:\n        /* \"#utility.yul\":3586:3587   */\n      0x00\n        /* \"#utility.yul\":3577:3583   */\n      dup5\n        /* \"#utility.yul\":3572:3575   */\n      dup5\n        /* \"#utility.yul\":3568:3584   */\n      add\n        /* \"#utility.yul\":3561:3588   */\n      mstore\n        /* \"#utility.yul\":3410:3594   */\n      pop\n        /* \"#utility.yul\":3348:3594   */\n      pop\n      pop\n      pop\n      jump\t// out\n        /* \"#utility.yul\":3600:3977   */\n    tag_44:\n        /* \"#utility.yul\":3688:3691   */\n      0x00\n        /* \"#utility.yul\":3716:3755   */\n      tag_116\n        /* \"#utility.yul\":3749:3754   */\n      dup3\n        /* \"#utility.yul\":3716:3755   */\n      tag_41\n      jump\t// in\n    tag_116:\n        /* \"#utility.yul\":3771:3842   */\n      tag_117\n        /* \"#utility.yul\":3835:3841   */\n      dup2\n        /* \"#utility.yul\":3830:3833   */\n      dup6\n        /* \"#utility.yul\":3771:3842   */\n      tag_42\n      jump\t// in\n    tag_117:\n        /* \"#utility.yul\":3764:3842   */\n      swap4\n      pop\n        /* \"#utility.yul\":3851:3916   */\n      tag_118\n        /* \"#utility.yul\":3909:3915   */\n      dup2\n        /* \"#utility.yul\":3904:3907   */\n      dup6\n        /* \"#utility.yul\":3897:3901   */\n      0x20\n        /* \"#utility.yul\":3890:3895   */\n      dup7\n        /* \"#utility.yul\":3886:3902   */\n      add\n        /* \"#utility.yul\":3851:3916   */\n      tag_43\n      jump\t// in\n    tag_118:\n        /* \"#utility.yul\":3941:3970   */\n      tag_119\n        /* \"#utility.yul\":3963:3969   */\n      dup2\n        /* \"#utility.yul\":3941:3970   */\n      tag_33\n      jump\t// in\n    tag_119:\n        /* \"#utility.yul\":3936:3939   */\n      dup5\n        /* \"#utility.yul\":3932:3971   */\n      add\n        /* \"#utility.yul\":3925:3971   */\n      swap2\n      pop\n        /* \"#utility.yul\":3692:3977   */\n      pop\n        /* \"#utility.yul\":3600:3977   */\n      swap3\n      swap2\n      pop\n      pop\n      jump\t// out\n        /* \"#utility.yul\":3983:4296   */\n    tag_10:\n        /* \"#utility.yul\":4096:4100   */\n      0x00\n        /* \"#utility.yul\":4134:4136   */\n      0x20\n        /* \"#utility.yul\":4123:4132   */\n      dup3\n        /* \"#utility.yul\":4119:4137   */\n      add\n        /* \"#utility.yul\":4111:4137   */\n      swap1\n      pop\n        /* \"#utility.yul\":4183:4192   */\n      dup2\n        /* \"#utility.yul\":4177:4181   */\n      dup2\n        /* \"#utility.yul\":4173:4193   */\n      sub\n        /* \"#utility.yul\":4169:4170   */\n      0x00\n        /* \"#utility.yul\":4158:4167   */\n      dup4\n        /* \"#utility.yul\":4154:4171   */\n      add\n        /* \"#utility.yul\":4147:4194   */\n      mstore\n        /* \"#utility.yul\":4211:4289   */\n      tag_121\n        /* \"#utility.yul\":4284:4288   */\n      dup2\n        /* \"#utility.yul\":4275:4281   */\n      dup5\n        /* \"#utility.yul\":4211:4289   */\n      tag_44\n      jump\t// in\n    tag_121:\n        /* \"#utility.yul\":4203:4289   */\n      swap1\n      pop\n        /* \"#utility.yul\":3983:4296   */\n      swap3\n      swap2\n      pop\n      pop\n      jump\t// out\n        /* \"#utility.yul\":4302:4379   */\n    tag_45:\n        /* \"#utility.yul\":4339:4346   */\n      0x00\n        /* \"#utility.yul\":4368:4373   */\n      dup2\n        /* \"#utility.yul\":4357:4373   */\n      swap1\n      pop\n        /* \"#utility.yul\":4302:4379   */\n      swap2\n      swap1\n      pop\n      jump\t// out\n        /* \"#utility.yul\":4385:4507   */\n    tag_46:\n        /* \"#utility.yul\":4458:4482   */\n      tag_124\n        /* \"#utility.yul\":4476:4481   */\n      dup2\n        /* \"#utility.yul\":4458:4482   */\n      tag_45\n      jump\t// in\n    tag_124:\n        /* \"#utility.yul\":4451:4456   */\n      dup2\n        /* \"#utility.yul\":4448:4483   */\n      eq\n        /* \"#utility.yul\":4438:4501   */\n      tag_125\n      jumpi\n        /* \"#utility.yul\":4497:4498   */\n      0x00\n        /* \"#utility.yul\":4494:4495   */\n      dup1\n        /* \"#utility.yul\":4487:4499   */\n      revert\n        /* \"#utility.yul\":4438:4501   */\n    tag_125:\n        /* \"#utility.yul\":4385:4507   */\n      pop\n      jump\t// out\n        /* \"#utility.yul\":4513:4652   */\n    tag_47:\n        /* \"#utility.yul\":4559:4564   */\n      0x00\n        /* \"#utility.yul\":4597:4603   */\n      dup2\n        /* \"#utility.yul\":4584:4604   */\n      calldataload\n        /* \"#utility.yul\":4575:4604   */\n      swap1\n      pop\n        /* \"#utility.yul\":4613:4646   */\n      tag_127\n        /* \"#utility.yul\":4640:4645   */\n      dup2\n        /* \"#utility.yul\":4613:4646   */\n      tag_46\n      jump\t// in\n    tag_127:\n        /* \"#utility.yul\":4513:4652   */\n      swap3\n      swap2\n      pop\n      pop\n      jump\t// out\n        /* \"#utility.yul\":4658:6401   */\n    tag_13:\n        /* \"#utility.yul\":4801:4807   */\n      0x00\n        /* \"#utility.yul\":4809:4815   */\n      dup1\n        /* \"#utility.yul\":4817:4823   */\n      0x00\n        /* \"#utility.yul\":4825:4831   */\n      dup1\n        /* \"#utility.yul\":4833:4839   */\n      0x00\n        /* \"#utility.yul\":4841:4847   */\n      dup1\n        /* \"#utility.yul\":4849:4855   */\n      0x00\n        /* \"#utility.yul\":4898:4901   */\n      0xe0\n        /* \"#utility.yul\":4886:4895   */\n      dup9\n        /* \"#utility.yul\":4877:4884   */\n      dup11\n        /* \"#utility.yul\":4873:4896   */\n      sub\n        /* \"#utility.yul\":4869:4902   */\n      slt\n        /* \"#utility.yul\":4866:4986   */\n      iszero\n      tag_129\n      jumpi\n        /* \"#utility.yul\":4905:4984   */\n      tag_130\n      tag_29\n      jump\t// in\n    tag_130:\n        /* \"#utility.yul\":4866:4986   */\n    tag_129:\n        /* \"#utility.yul\":5053:5054   */\n      0x00\n        /* \"#utility.yul\":5042:5051   */\n      dup9\n        /* \"#utility.yul\":5038:5055   */\n      add\n        /* \"#utility.yul\":5025:5056   */\n      calldataload\n        /* \"#utility.yul\":5083:5101   */\n      0xffffffffffffffff\n        /* \"#utility.yul\":5075:5081   */\n      dup2\n        /* \"#utility.yul\":5072:5102   */\n      gt\n        /* \"#utility.yul\":5069:5186   */\n      iszero\n      tag_131\n      jumpi\n        /* \"#utility.yul\":5105:5184   */\n      tag_132\n      tag_30\n      jump\t// in\n    tag_132:\n        /* \"#utility.yul\":5069:5186   */\n    tag_131:\n        /* \"#utility.yul\":5210:5273   */\n      tag_133\n        /* \"#utility.yul\":5265:5272   */\n      dup11\n        /* \"#utility.yul\":5256:5262   */\n      dup3\n        /* \"#utility.yul\":5245:5254   */\n      dup12\n        /* \"#utility.yul\":5241:5263   */\n      add\n        /* \"#utility.yul\":5210:5273   */\n      tag_40\n      jump\t// in\n    tag_133:\n        /* \"#utility.yul\":5200:5273   */\n      swap8\n      pop\n        /* \"#utility.yul\":4996:5283   */\n      pop\n        /* \"#utility.yul\":5322:5324   */\n      0x20\n        /* \"#utility.yul\":5348:5401   */\n      tag_134\n        /* \"#utility.yul\":5393:5400   */\n      dup11\n        /* \"#utility.yul\":5384:5390   */\n      dup3\n        /* \"#utility.yul\":5373:5382   */\n      dup12\n        /* \"#utility.yul\":5369:5391   */\n      add\n        /* \"#utility.yul\":5348:5401   */\n      tag_47\n      jump\t// in\n    tag_134:\n        /* \"#utility.yul\":5338:5401   */\n      swap7\n      pop\n        /* \"#utility.yul\":5293:5411   */\n      pop\n        /* \"#utility.yul\":5478:5480   */\n      0x40\n        /* \"#utility.yul\":5467:5476   */\n      dup9\n        /* \"#utility.yul\":5463:5481   */\n      add\n        /* \"#utility.yul\":5450:5482   */\n      calldataload\n        /* \"#utility.yul\":5509:5527   */\n      0xffffffffffffffff\n        /* \"#utility.yul\":5501:5507   */\n      dup2\n        /* \"#utility.yul\":5498:5528   */\n      gt\n        /* \"#utility.yul\":5495:5612   */\n      iszero\n      tag_135\n      jumpi\n        /* \"#utility.yul\":5531:5610   */\n      tag_136\n      tag_30\n      jump\t// in\n    tag_136:\n        /* \"#utility.yul\":5495:5612   */\n    tag_135:\n        /* \"#utility.yul\":5636:5699   */\n      tag_137\n        /* \"#utility.yul\":5691:5698   */\n      dup11\n        /* \"#utility.yul\":5682:5688   */\n      dup3\n        /* \"#utility.yul\":5671:5680   */\n      dup12\n        /* \"#utility.yul\":5667:5689   */\n      add\n        /* \"#utility.yul\":5636:5699   */\n      tag_40\n      jump\t// in\n    tag_137:\n        /* \"#utility.yul\":5626:5699   */\n      swap6\n      pop\n        /* \"#utility.yul\":5421:5709   */\n      pop\n        /* \"#utility.yul\":5748:5750   */\n      0x60\n        /* \"#utility.yul\":5774:5827   */\n      tag_138\n        /* \"#utility.yul\":5819:5826   */\n      dup11\n        /* \"#utility.yul\":5810:5816   */\n      dup3\n        /* \"#utility.yul\":5799:5808   */\n      dup12\n        /* \"#utility.yul\":5795:5817   */\n      add\n        /* \"#utility.yul\":5774:5827   */\n      tag_47\n      jump\t// in\n    tag_138:\n        /* \"#utility.yul\":5764:5827   */\n      swap5\n      pop\n        /* \"#utility.yul\":5719:5837   */\n      pop\n        /* \"#utility.yul\":5904:5907   */\n      0x80\n        /* \"#utility.yul\":5893:5902   */\n      dup9\n        /* \"#utility.yul\":5889:5908   */\n      add\n        /* \"#utility.yul\":5876:5909   */\n      calldataload\n        /* \"#utility.yul\":5936:5954   */\n      0xffffffffffffffff\n        /* \"#utility.yul\":5928:5934   */\n      dup2\n        /* \"#utility.yul\":5925:5955   */\n      gt\n        /* \"#utility.yul\":5922:6039   */\n      iszero\n      tag_139\n      jumpi\n        /* \"#utility.yul\":5958:6037   */\n      tag_140\n      tag_30\n      jump\t// in\n    tag_140:\n        /* \"#utility.yul\":5922:6039   */\n    tag_139:\n        /* \"#utility.yul\":6063:6126   */\n      tag_141\n        /* \"#utility.yul\":6118:6125   */\n      dup11\n        /* \"#utility.yul\":6109:6115   */\n      dup3\n        /* \"#utility.yul\":6098:6107   */\n      dup12\n        /* \"#utility.yul\":6094:6116   */\n      add\n        /* \"#utility.yul\":6063:6126   */\n      tag_40\n      jump\t// in\n    tag_141:\n        /* \"#utility.yul\":6053:6126   */\n      swap4\n      pop\n        /* \"#utility.yul\":5847:6136   */\n      pop\n        /* \"#utility.yul\":6175:6178   */\n      0xa0\n        /* \"#utility.yul\":6202:6255   */\n      tag_142\n        /* \"#utility.yul\":6247:6254   */\n      dup11\n        /* \"#utility.yul\":6238:6244   */\n      dup3\n        /* \"#utility.yul\":6227:6236   */\n      dup12\n        /* \"#utility.yul\":6223:6245   */\n      add\n        /* \"#utility.yul\":6202:6255   */\n      tag_47\n      jump\t// in\n    tag_142:\n        /* \"#utility.yul\":6192:6255   */\n      swap3\n      pop\n        /* \"#utility.yul\":6146:6265   */\n      pop\n        /* \"#utility.yul\":6304:6307   */\n      0xc0\n        /* \"#utility.yul\":6331:6384   */\n      tag_143\n        /* \"#utility.yul\":6376:6383   */\n      dup11\n        /* \"#utility.yul\":6367:6373   */\n      dup3\n        /* \"#utility.yul\":6356:6365   */\n      dup12\n        /* \"#utility.yul\":6352:6374   */\n      add\n        /* \"#utility.yul\":6331:6384   */\n      tag_47\n      jump\t// in\n    tag_143:\n        /* \"#utility.yul\":6321:6384   */\n      swap2\n      pop\n        /* \"#utility.yul\":6275:6394   */\n      pop\n        /* \"#utility.yul\":4658:6401   */\n      swap3\n      swap6\n      swap9\n      swap2\n      swap5\n      swap8\n      pop\n      swap3\n      swap6\n      pop\n      jump\t// out\n        /* \"#utility.yul\":6407:6555   */\n    tag_48:\n        /* \"#utility.yul\":6509:6520   */\n      0x00\n        /* \"#utility.yul\":6546:6549   */\n      dup2\n        /* \"#utility.yul\":6531:6549   */\n      swap1\n      pop\n        /* \"#utility.yul\":6407:6555   */\n      swap3\n      swap2\n      pop\n      pop\n      jump\t// out\n        /* \"#utility.yul\":6561:6951   */\n    tag_49:\n        /* \"#utility.yul\":6667:6670   */\n      0x00\n        /* \"#utility.yul\":6695:6734   */\n      tag_146\n        /* \"#utility.yul\":6728:6733   */\n      dup3\n        /* \"#utility.yul\":6695:6734   */\n      tag_41\n      jump\t// in\n    tag_146:\n        /* \"#utility.yul\":6750:6839   */\n      tag_147\n        /* \"#utility.yul\":6832:6838   */\n      dup2\n        /* \"#utility.yul\":6827:6830   */\n      dup6\n        /* \"#utility.yul\":6750:6839   */\n      tag_48\n      jump\t// in\n    tag_147:\n        /* \"#utility.yul\":6743:6839   */\n      swap4\n      pop\n        /* \"#utility.yul\":6848:6913   */\n      tag_148\n        /* \"#utility.yul\":6906:6912   */\n      dup2\n        /* \"#utility.yul\":6901:6904   */\n      dup6\n        /* \"#utility.yul\":6894:6898   */\n      0x20\n        /* \"#utility.yul\":6887:6892   */\n      dup7\n        /* \"#utility.yul\":6883:6899   */\n      add\n        /* \"#utility.yul\":6848:6913   */\n      tag_43\n      jump\t// in\n    tag_148:\n        /* \"#utility.yul\":6938:6944   */\n      dup1\n        /* \"#utility.yul\":6933:6936   */\n      dup5\n        /* \"#utility.yul\":6929:6945   */\n      add\n        /* \"#utility.yul\":6922:6945   */\n      swap2\n      pop\n        /* \"#utility.yul\":6671:6951   */\n      pop\n        /* \"#utility.yul\":6561:6951   */\n      swap3\n      swap2\n      pop\n      pop\n      jump\t// out\n        /* \"#utility.yul\":6957:7135   */\n    tag_50:\n        /* \"#utility.yul\":7097:7127   */\n      0x207375636365737366756c6c792076616363696e656420776974682000000000\n        /* \"#utility.yul\":7093:7094   */\n      0x00\n        /* \"#utility.yul\":7085:7091   */\n      dup3\n        /* \"#utility.yul\":7081:7095   */\n      add\n        /* \"#utility.yul\":7074:7128   */\n      mstore\n        /* \"#utility.yul\":6957:7135   */\n      pop\n      jump\t// out\n        /* \"#utility.yul\":7141:7543   */\n    tag_51:\n        /* \"#utility.yul\":7301:7304   */\n      0x00\n        /* \"#utility.yul\":7322:7407   */\n      tag_151\n        /* \"#utility.yul\":7404:7406   */\n      0x1c\n        /* \"#utility.yul\":7399:7402   */\n      dup4\n        /* \"#utility.yul\":7322:7407   */\n      tag_48\n      jump\t// in\n    tag_151:\n        /* \"#utility.yul\":7315:7407   */\n      swap2\n      pop\n        /* \"#utility.yul\":7416:7509   */\n      tag_152\n        /* \"#utility.yul\":7505:7508   */\n      dup3\n        /* \"#utility.yul\":7416:7509   */\n      tag_50\n      jump\t// in\n    tag_152:\n        /* \"#utility.yul\":7534:7536   */\n      0x1c\n        /* \"#utility.yul\":7529:7532   */\n      dup3\n        /* \"#utility.yul\":7525:7537   */\n      add\n        /* \"#utility.yul\":7518:7537   */\n      swap1\n      pop\n        /* \"#utility.yul\":7141:7543   */\n      swap2\n      swap1\n      pop\n      jump\t// out\n        /* \"#utility.yul\":7549:7704   */\n    tag_52:\n        /* \"#utility.yul\":7689:7696   */\n      0x6669727374000000000000000000000000000000000000000000000000000000\n        /* \"#utility.yul\":7685:7686   */\n      0x00\n        /* \"#utility.yul\":7677:7683   */\n      dup3\n        /* \"#utility.yul\":7673:7687   */\n      add\n        /* \"#utility.yul\":7666:7697   */\n      mstore\n        /* \"#utility.yul\":7549:7704   */\n      pop\n      jump\t// out\n        /* \"#utility.yul\":7710:8110   */\n    tag_53:\n        /* \"#utility.yul\":7870:7873   */\n      0x00\n        /* \"#utility.yul\":7891:7975   */\n      tag_155\n        /* \"#utility.yul\":7973:7974   */\n      0x05\n        /* \"#utility.yul\":7968:7971   */\n      dup4\n        /* \"#utility.yul\":7891:7975   */\n      tag_48\n      jump\t// in\n    tag_155:\n        /* \"#utility.yul\":7884:7975   */\n      swap2\n      pop\n        /* \"#utility.yul\":7984:8077   */\n      tag_156\n        /* \"#utility.yul\":8073:8076   */\n      dup3\n        /* \"#utility.yul\":7984:8077   */\n      tag_52\n      jump\t// in\n    tag_156:\n        /* \"#utility.yul\":8102:8103   */\n      0x05\n        /* \"#utility.yul\":8097:8100   */\n      dup3\n        /* \"#utility.yul\":8093:8104   */\n      add\n        /* \"#utility.yul\":8086:8104   */\n      swap1\n      pop\n        /* \"#utility.yul\":7710:8110   */\n      swap2\n      swap1\n      pop\n      jump\t// out\n        /* \"#utility.yul\":8116:8271   */\n    tag_54:\n        /* \"#utility.yul\":8256:8263   */\n      0x20646f7365000000000000000000000000000000000000000000000000000000\n        /* \"#utility.yul\":8252:8253   */\n      0x00\n        /* \"#utility.yul\":8244:8250   */\n      dup3\n        /* \"#utility.yul\":8240:8254   */\n      add\n        /* \"#utility.yul\":8233:8264   */\n      mstore\n        /* \"#utility.yul\":8116:8271   */\n      pop\n      jump\t// out\n        /* \"#utility.yul\":8277:8677   */\n    tag_55:\n        /* \"#utility.yul\":8437:8440   */\n      0x00\n        /* \"#utility.yul\":8458:8542   */\n      tag_159\n        /* \"#utility.yul\":8540:8541   */\n      0x05\n        /* \"#utility.yul\":8535:8538   */\n      dup4\n        /* \"#utility.yul\":8458:8542   */\n      tag_48\n      jump\t// in\n    tag_159:\n        /* \"#utility.yul\":8451:8542   */\n      swap2\n      pop\n        /* \"#utility.yul\":8551:8644   */\n      tag_160\n        /* \"#utility.yul\":8640:8643   */\n      dup3\n        /* \"#utility.yul\":8551:8644   */\n      tag_54\n      jump\t// in\n    tag_160:\n        /* \"#utility.yul\":8669:8670   */\n      0x05\n        /* \"#utility.yul\":8664:8667   */\n      dup3\n        /* \"#utility.yul\":8660:8671   */\n      add\n        /* \"#utility.yul\":8653:8671   */\n      swap1\n      pop\n        /* \"#utility.yul\":8277:8677   */\n      swap2\n      swap1\n      pop\n      jump\t// out\n        /* \"#utility.yul\":8683:9756   */\n    tag_17:\n        /* \"#utility.yul\":9118:9121   */\n      0x00\n        /* \"#utility.yul\":9140:9235   */\n      tag_162\n        /* \"#utility.yul\":9231:9234   */\n      dup3\n        /* \"#utility.yul\":9222:9228   */\n      dup5\n        /* \"#utility.yul\":9140:9235   */\n      tag_49\n      jump\t// in\n    tag_162:\n        /* \"#utility.yul\":9133:9235   */\n      swap2\n      pop\n        /* \"#utility.yul\":9252:9400   */\n      tag_163\n        /* \"#utility.yul\":9396:9399   */\n      dup3\n        /* \"#utility.yul\":9252:9400   */\n      tag_51\n      jump\t// in\n    tag_163:\n        /* \"#utility.yul\":9245:9400   */\n      swap2\n      pop\n        /* \"#utility.yul\":9417:9565   */\n      tag_164\n        /* \"#utility.yul\":9561:9564   */\n      dup3\n        /* \"#utility.yul\":9417:9565   */\n      tag_53\n      jump\t// in\n    tag_164:\n        /* \"#utility.yul\":9410:9565   */\n      swap2\n      pop\n        /* \"#utility.yul\":9582:9730   */\n      tag_165\n        /* \"#utility.yul\":9726:9729   */\n      dup3\n        /* \"#utility.yul\":9582:9730   */\n      tag_55\n      jump\t// in\n    tag_165:\n        /* \"#utility.yul\":9575:9730   */\n      swap2\n      pop\n        /* \"#utility.yul\":9747:9750   */\n      dup2\n        /* \"#utility.yul\":9740:9750   */\n      swap1\n      pop\n        /* \"#utility.yul\":8683:9756   */\n      swap3\n      swap2\n      pop\n      pop\n      jump\t// out\n        /* \"#utility.yul\":9762:10037   */\n    tag_20:\n        /* \"#utility.yul\":9894:9897   */\n      0x00\n        /* \"#utility.yul\":9916:10011   */\n      tag_167\n        /* \"#utility.yul\":10007:10010   */\n      dup3\n        /* \"#utility.yul\":9998:10004   */\n      dup5\n        /* \"#utility.yul\":9916:10011   */\n      tag_49\n      jump\t// in\n    tag_167:\n        /* \"#utility.yul\":9909:10011   */\n      swap2\n      pop\n        /* \"#utility.yul\":10028:10031   */\n      dup2\n        /* \"#utility.yul\":10021:10031   */\n      swap1\n      pop\n        /* \"#utility.yul\":9762:10037   */\n      swap3\n      swap2\n      pop\n      pop\n      jump\t// out\n        /* \"#utility.yul\":10043:10223   */\n    tag_56:\n        /* \"#utility.yul\":10091:10168   */\n      0x4e487b7100000000000000000000000000000000000000000000000000000000\n        /* \"#utility.yul\":10088:10089   */\n      0x00\n        /* \"#utility.yul\":10081:10169   */\n      mstore\n        /* \"#utility.yul\":10188:10192   */\n      0x22\n        /* \"#utility.yul\":10185:10186   */\n      0x04\n        /* \"#utility.yul\":10178:10193   */\n      mstore\n        /* \"#utility.yul\":10212:10216   */\n      0x24\n        /* \"#utility.yul\":10209:10210   */\n      0x00\n        /* \"#utility.yul\":10202:10217   */\n      revert\n        /* \"#utility.yul\":10229:10549   */\n    tag_57:\n        /* \"#utility.yul\":10273:10279   */\n      0x00\n        /* \"#utility.yul\":10310:10311   */\n      0x02\n        /* \"#utility.yul\":10304:10308   */\n      dup3\n        /* \"#utility.yul\":10300:10312   */\n      div\n        /* \"#utility.yul\":10290:10312   */\n      swap1\n      pop\n        /* \"#utility.yul\":10357:10358   */\n      0x01\n        /* \"#utility.yul\":10351:10355   */\n      dup3\n        /* \"#utility.yul\":10347:10359   */\n      and\n        /* \"#utility.yul\":10378:10396   */\n      dup1\n        /* \"#utility.yul\":10368:10449   */\n      tag_170\n      jumpi\n        /* \"#utility.yul\":10434:10438   */\n      0x7f\n        /* \"#utility.yul\":10426:10432   */\n      dup3\n        /* \"#utility.yul\":10422:10439   */\n      and\n        /* \"#utility.yul\":10412:10439   */\n      swap2\n      pop\n        /* \"#utility.yul\":10368:10449   */\n    tag_170:\n        /* \"#utility.yul\":10496:10498   */\n      0x20\n        /* \"#utility.yul\":10488:10494   */\n      dup3\n        /* \"#utility.yul\":10485:10499   */\n      lt\n        /* \"#utility.yul\":10465:10483   */\n      dup2\n        /* \"#utility.yul\":10462:10500   */\n      sub\n        /* \"#utility.yul\":10459:10543   */\n      tag_171\n      jumpi\n        /* \"#utility.yul\":10515:10533   */\n      tag_172\n      tag_56\n      jump\t// in\n    tag_172:\n        /* \"#utility.yul\":10459:10543   */\n    tag_171:\n        /* \"#utility.yul\":10280:10549   */\n      pop\n        /* \"#utility.yul\":10229:10549   */\n      swap2\n      swap1\n      pop\n      jump\t// out\n        /* \"#utility.yul\":10555:10696   */\n    tag_58:\n        /* \"#utility.yul\":10604:10608   */\n      0x00\n        /* \"#utility.yul\":10627:10630   */\n      dup2\n        /* \"#utility.yul\":10619:10630   */\n      swap1\n      pop\n        /* \"#utility.yul\":10650:10653   */\n      dup2\n        /* \"#utility.yul\":10647:10648   */\n      0x00\n        /* \"#utility.yul\":10640:10654   */\n      mstore\n        /* \"#utility.yul\":10684:10688   */\n      0x20\n        /* \"#utility.yul\":10681:10682   */\n      0x00\n        /* \"#utility.yul\":10671:10689   */\n      keccak256\n        /* \"#utility.yul\":10663:10689   */\n      swap1\n      pop\n        /* \"#utility.yul\":10555:10696   */\n      swap2\n      swap1\n      pop\n      jump\t// out\n        /* \"#utility.yul\":10702:10795   */\n    tag_59:\n        /* \"#utility.yul\":10739:10745   */\n      0x00\n        /* \"#utility.yul\":10786:10788   */\n      0x20\n        /* \"#utility.yul\":10781:10783   */\n      0x1f\n        /* \"#utility.yul\":10774:10779   */\n      dup4\n        /* \"#utility.yul\":10770:10784   */\n      add\n        /* \"#utility.yul\":10766:10789   */\n      div\n        /* \"#utility.yul\":10756:10789   */\n      swap1\n      pop\n        /* \"#utility.yul\":10702:10795   */\n      swap2\n      swap1\n      pop\n      jump\t// out\n        /* \"#utility.yul\":10801:10908   */\n    tag_60:\n        /* \"#utility.yul\":10845:10853   */\n      0x00\n        /* \"#utility.yul\":10895:10900   */\n      dup3\n        /* \"#utility.yul\":10889:10893   */\n      dup3\n        /* \"#utility.yul\":10885:10901   */\n      shl\n        /* \"#utility.yul\":10864:10901   */\n      swap1\n      pop\n        /* \"#utility.yul\":10801:10908   */\n      swap3\n      swap2\n      pop\n      pop\n      jump\t// out\n        /* \"#utility.yul\":10914:11307   */\n    tag_61:\n        /* \"#utility.yul\":10983:10989   */\n      0x00\n        /* \"#utility.yul\":11033:11034   */\n      0x08\n        /* \"#utility.yul\":11021:11031   */\n      dup4\n        /* \"#utility.yul\":11017:11035   */\n      mul\n        /* \"#utility.yul\":11056:11153   */\n      tag_177\n        /* \"#utility.yul\":11086:11152   */\n      0xffffffffffffffffffffffffffffffffffffffffffffffffffffffffffffffff\n        /* \"#utility.yul\":11075:11084   */\n      dup3\n        /* \"#utility.yul\":11056:11153   */\n      tag_60\n      jump\t// in\n    tag_177:\n        /* \"#utility.yul\":11174:11213   */\n      tag_178\n        /* \"#utility.yul\":11204:11212   */\n      dup7\n        /* \"#utility.yul\":11193:11202   */\n      dup4\n        /* \"#utility.yul\":11174:11213   */\n      tag_60\n      jump\t// in\n    tag_178:\n        /* \"#utility.yul\":11162:11213   */\n      swap6\n      pop\n        /* \"#utility.yul\":11246:11250   */\n      dup1\n        /* \"#utility.yul\":11242:11251   */\n      not\n        /* \"#utility.yul\":11235:11240   */\n      dup5\n        /* \"#utility.yul\":11231:11252   */\n      and\n        /* \"#utility.yul\":11222:11252   */\n      swap4\n      pop\n        /* \"#utility.yul\":11295:11299   */\n      dup1\n        /* \"#utility.yul\":11285:11293   */\n      dup7\n        /* \"#utility.yul\":11281:11300   */\n      and\n        /* \"#utility.yul\":11274:11279   */\n      dup5\n        /* \"#utility.yul\":11271:11301   */\n      or\n        /* \"#utility.yul\":11261:11301   */\n      swap3\n      pop\n        /* \"#utility.yul\":10990:11307   */\n      pop\n      pop\n        /* \"#utility.yul\":10914:11307   */\n      swap4\n      swap3\n      pop\n      pop\n      pop\n      jump\t// out\n        /* \"#utility.yul\":11313:11373   */\n    tag_62:\n        /* \"#utility.yul\":11341:11344   */\n      0x00\n        /* \"#utility.yul\":11362:11367   */\n      dup2\n        /* \"#utility.yul\":11355:11367   */\n      swap1\n      pop\n        /* \"#utility.yul\":11313:11373   */\n      swap2\n      swap1\n      pop\n      jump\t// out\n        /* \"#utility.yul\":11379:11521   */\n    tag_63:\n        /* \"#utility.yul\":11429:11438   */\n      0x00\n        /* \"#utility.yul\":11462:11515   */\n      tag_181\n        /* \"#utility.yul\":11480:11514   */\n      tag_182\n        /* \"#utility.yul\":11489:11513   */\n      tag_183\n        /* \"#utility.yul\":11507:11512   */\n      dup5\n        /* \"#utility.yul\":11489:11513   */\n      tag_45\n      jump\t// in\n    tag_183:\n        /* \"#utility.yul\":11480:11514   */\n      tag_62\n      jump\t// in\n    tag_182:\n        /* \"#utility.yul\":11462:11515   */\n      tag_45\n      jump\t// in\n    tag_181:\n        /* \"#utility.yul\":11449:11515   */\n      swap1\n      pop\n        /* \"#utility.yul\":11379:11521   */\n      swap2\n      swap1\n      pop\n      jump\t// out\n        /* \"#utility.yul\":11527:11602   */\n    tag_64:\n        /* \"#utility.yul\":11570:11573   */\n      0x00\n        /* \"#utility.yul\":11591:11596   */\n      dup2\n        /* \"#utility.yul\":11584:11596   */\n      swap1\n      pop\n        /* \"#utility.yul\":11527:11602   */\n      swap2\n      swap1\n      pop\n      jump\t// out\n        /* \"#utility.yul\":11608:11877   */\n    tag_65:\n        /* \"#utility.yul\":11718:11757   */\n      tag_186\n        /* \"#utility.yul\":11749:11756   */\n      dup4\n        /* \"#utility.yul\":11718:11757   */\n      tag_63\n      jump\t// in\n    tag_186:\n        /* \"#utility.yul\":11779:11870   */\n      tag_187\n        /* \"#utility.yul\":11828:11869   */\n      tag_188\n        /* \"#utility.yul\":11852:11868   */\n      dup3\n        /* \"#utility.yul\":11828:11869   */\n      tag_64\n      jump\t// in\n    tag_188:\n        /* \"#utility.yul\":11820:11826   */\n      dup5\n        /* \"#utility.yul\":11813:11817   */\n      dup5\n        /* \"#utility.yul\":11807:11818   */\n      sload\n        /* \"#utility.yul\":11779:11870   */\n      tag_61\n      jump\t// in\n    tag_187:\n        /* \"#utility.yul\":11773:11777   */\n      dup3\n        /* \"#utility.yul\":11766:11871   */\n      sstore\n        /* \"#utility.yul\":11684:11877   */\n      pop\n        /* \"#utility.yul\":11608:11877   */\n      pop\n      pop\n      pop\n      jump\t// out\n        /* \"#utility.yul\":11883:11956   */\n    tag_66:\n        /* \"#utility.yul\":11928:11931   */\n      0x00\n        /* \"#utility.yul\":11883:11956   */\n      swap1\n      jump\t// out\n        /* \"#utility.yul\":11962:12151   */\n    tag_67:\n        /* \"#utility.yul\":12039:12071   */\n      tag_191\n      tag_66\n      jump\t// in\n    tag_191:\n        /* \"#utility.yul\":12080:12145   */\n      tag_192\n        /* \"#utility.yul\":12138:12144   */\n      dup2\n        /* \"#utility.yul\":12130:12136   */\n      dup5\n        /* \"#utility.yul\":12124:12128   */\n      dup5\n        /* \"#utility.yul\":12080:12145   */\n      tag_65\n      jump\t// in\n    tag_192:\n        /* \"#utility.yul\":12015:12151   */\n      pop\n        /* \"#utility.yul\":11962:12151   */\n      pop\n      pop\n      jump\t// out\n        /* \"#utility.yul\":12157:12343   */\n    tag_68:\n        /* \"#utility.yul\":12217:12337   */\n    tag_194:\n        /* \"#utility.yul\":12234:12237   */\n      dup2\n        /* \"#utility.yul\":12227:12232   */\n      dup2\n        /* \"#utility.yul\":12224:12238   */\n      lt\n        /* \"#utility.yul\":12217:12337   */\n      iszero\n      tag_196\n      jumpi\n        /* \"#utility.yul\":12288:12327   */\n      tag_197\n        /* \"#utility.yul\":12325:12326   */\n      0x00\n        /* \"#utility.yul\":12318:12323   */\n      dup3\n        /* \"#utility.yul\":12288:12327   */\n      tag_67\n      jump\t// in\n    tag_197:\n        /* \"#utility.yul\":12261:12262   */\n      0x01\n        /* \"#utility.yul\":12254:12259   */\n      dup2\n        /* \"#utility.yul\":12250:12263   */\n      add\n        /* \"#utility.yul\":12241:12263   */\n      swap1\n      pop\n        /* \"#utility.yul\":12217:12337   */\n      jump(tag_194)\n    tag_196:\n        /* \"#utility.yul\":12157:12343   */\n      pop\n      pop\n      jump\t// out\n        /* \"#utility.yul\":12349:12892   */\n    tag_69:\n        /* \"#utility.yul\":12450:12452   */\n      0x1f\n        /* \"#utility.yul\":12445:12448   */\n      dup3\n        /* \"#utility.yul\":12442:12453   */\n      gt\n        /* \"#utility.yul\":12439:12885   */\n      iszero\n      tag_199\n      jumpi\n        /* \"#utility.yul\":12484:12522   */\n      tag_200\n        /* \"#utility.yul\":12516:12521   */\n      dup2\n        /* \"#utility.yul\":12484:12522   */\n      tag_58\n      jump\t// in\n    tag_200:\n        /* \"#utility.yul\":12568:12597   */\n      tag_201\n        /* \"#utility.yul\":12586:12596   */\n      dup5\n        /* \"#utility.yul\":12568:12597   */\n      tag_59\n      jump\t// in\n    tag_201:\n        /* \"#utility.yul\":12558:12566   */\n      dup2\n        /* \"#utility.yul\":12554:12598   */\n      add\n        /* \"#utility.yul\":12751:12753   */\n      0x20\n        /* \"#utility.yul\":12739:12749   */\n      dup6\n        /* \"#utility.yul\":12736:12754   */\n      lt\n        /* \"#utility.yul\":12733:12782   */\n      iszero\n      tag_202\n      jumpi\n        /* \"#utility.yul\":12772:12780   */\n      dup2\n        /* \"#utility.yul\":12757:12780   */\n      swap1\n      pop\n        /* \"#utility.yul\":12733:12782   */\n    tag_202:\n        /* \"#utility.yul\":12795:12875   */\n      tag_203\n        /* \"#utility.yul\":12851:12873   */\n      tag_204\n        /* \"#utility.yul\":12869:12872   */\n      dup6\n        /* \"#utility.yul\":12851:12873   */\n      tag_59\n      jump\t// in\n    tag_204:\n        /* \"#utility.yul\":12841:12849   */\n      dup4\n        /* \"#utility.yul\":12837:12874   */\n      add\n        /* \"#utility.yul\":12824:12835   */\n      dup3\n        /* \"#utility.yul\":12795:12875   */\n      tag_68\n      jump\t// in\n    tag_203:\n        /* \"#utility.yul\":12454:12885   */\n      pop\n      pop\n        /* \"#utility.yul\":12439:12885   */\n    tag_199:\n        /* \"#utility.yul\":12349:12892   */\n      pop\n      pop\n      pop\n      jump\t// out\n        /* \"#utility.yul\":12898:13015   */\n    tag_70:\n        /* \"#utility.yul\":12952:12960   */\n      0x00\n        /* \"#utility.yul\":13002:13007   */\n      dup3\n        /* \"#utility.yul\":12996:13000   */\n      dup3\n        /* \"#utility.yul\":12992:13008   */\n      shr\n        /* \"#utility.yul\":12971:13008   */\n      swap1\n      pop\n        /* \"#utility.yul\":12898:13015   */\n      swap3\n      swap2\n      pop\n      pop\n      jump\t// out\n        /* \"#utility.yul\":13021:13190   */\n    tag_71:\n        /* \"#utility.yul\":13065:13071   */\n      0x00\n        /* \"#utility.yul\":13098:13149   */\n      tag_207\n        /* \"#utility.yul\":13146:13147   */\n      0x00\n        /* \"#utility.yul\":13142:13148   */\n      not\n        /* \"#utility.yul\":13134:13139   */\n      dup5\n        /* \"#utility.yul\":13131:13132   */\n      0x08\n        /* \"#utility.yul\":13127:13140   */\n      mul\n        /* \"#utility.yul\":13098:13149   */\n      tag_70\n      jump\t// in\n    tag_207:\n        /* \"#utility.yul\":13094:13150   */\n      not\n        /* \"#utility.yul\":13179:13183   */\n      dup1\n        /* \"#utility.yul\":13173:13177   */\n      dup4\n        /* \"#utility.yul\":13169:13184   */\n      and\n        /* \"#utility.yul\":13159:13184   */\n      swap2\n      pop\n        /* \"#utility.yul\":13072:13190   */\n      pop\n        /* \"#utility.yul\":13021:13190   */\n      swap3\n      swap2\n      pop\n      pop\n      jump\t// out\n        /* \"#utility.yul\":13195:13490   */\n    tag_72:\n        /* \"#utility.yul\":13271:13275   */\n      0x00\n        /* \"#utility.yul\":13417:13446   */\n      tag_209\n        /* \"#utility.yul\":13442:13445   */\n      dup4\n        /* \"#utility.yul\":13436:13440   */\n      dup4\n        /* \"#utility.yul\":13417:13446   */\n      tag_71\n      jump\t// in\n    tag_209:\n        /* \"#utility.yul\":13409:13446   */\n      swap2\n      pop\n        /* \"#utility.yul\":13479:13482   */\n      dup3\n        /* \"#utility.yul\":13476:13477   */\n      0x02\n        /* \"#utility.yul\":13472:13483   */\n      mul\n        /* \"#utility.yul\":13466:13470   */\n      dup3\n        /* \"#utility.yul\":13463:13484   */\n      or\n        /* \"#utility.yul\":13455:13484   */\n      swap1\n      pop\n        /* \"#utility.yul\":13195:13490   */\n      swap3\n      swap2\n      pop\n      pop\n      jump\t// out\n        /* \"#utility.yul\":13495:14890   */\n    tag_22:\n        /* \"#utility.yul\":13612:13649   */\n      tag_211\n        /* \"#utility.yul\":13645:13648   */\n      dup3\n        /* \"#utility.yul\":13612:13649   */\n      tag_41\n      jump\t// in\n    tag_211:\n        /* \"#utility.yul\":13714:13732   */\n      0xffffffffffffffff\n        /* \"#utility.yul\":13706:13712   */\n      dup2\n        /* \"#utility.yul\":13703:13733   */\n      gt\n        /* \"#utility.yul\":13700:13756   */\n      iszero\n      tag_212\n      jumpi\n        /* \"#utility.yul\":13736:13754   */\n      tag_213\n      tag_34\n      jump\t// in\n    tag_213:\n        /* \"#utility.yul\":13700:13756   */\n    tag_212:\n        /* \"#utility.yul\":13780:13818   */\n      tag_214\n        /* \"#utility.yul\":13812:13816   */\n      dup3\n        /* \"#utility.yul\":13806:13817   */\n      sload\n        /* \"#utility.yul\":13780:13818   */\n      tag_57\n      jump\t// in\n    tag_214:\n        /* \"#utility.yul\":13865:13932   */\n      tag_215\n        /* \"#utility.yul\":13925:13931   */\n      dup3\n        /* \"#utility.yul\":13917:13923   */\n      dup3\n        /* \"#utility.yul\":13911:13915   */\n      dup6\n        /* \"#utility.yul\":13865:13932   */\n      tag_69\n      jump\t// in\n    tag_215:\n        /* \"#utility.yul\":13959:13960   */\n      0x00\n        /* \"#utility.yul\":13983:13987   */\n      0x20\n        /* \"#utility.yul\":13970:13987   */\n      swap1\n      pop\n        /* \"#utility.yul\":14015:14017   */\n      0x1f\n        /* \"#utility.yul\":14007:14013   */\n      dup4\n        /* \"#utility.yul\":14004:14018   */\n      gt\n        /* \"#utility.yul\":14032:14033   */\n      0x01\n        /* \"#utility.yul\":14027:14645   */\n      dup2\n      eq\n      tag_217\n      jumpi\n        /* \"#utility.yul\":14689:14690   */\n      0x00\n        /* \"#utility.yul\":14706:14712   */\n      dup5\n        /* \"#utility.yul\":14703:14780   */\n      iszero\n      tag_218\n      jumpi\n        /* \"#utility.yul\":14755:14764   */\n      dup3\n        /* \"#utility.yul\":14750:14753   */\n      dup8\n        /* \"#utility.yul\":14746:14765   */\n      add\n        /* \"#utility.yul\":14740:14766   */\n      mload\n        /* \"#utility.yul\":14731:14766   */\n      swap1\n      pop\n        /* \"#utility.yul\":14703:14780   */\n    tag_218:\n        /* \"#utility.yul\":14806:14873   */\n      tag_219\n        /* \"#utility.yul\":14866:14872   */\n      dup6\n        /* \"#utility.yul\":14859:14864   */\n      dup3\n        /* \"#utility.yul\":14806:14873   */\n      tag_72\n      jump\t// in\n    tag_219:\n        /* \"#utility.yul\":14800:14804   */\n      dup7\n        /* \"#utility.yul\":14793:14874   */\n      sstore\n        /* \"#utility.yul\":14662:14884   */\n      pop\n        /* \"#utility.yul\":13997:14884   */\n      jump(tag_216)\n        /* \"#utility.yul\":14027:14645   */\n    tag_217:\n        /* \"#utility.yul\":14079:14083   */\n      0x1f\n        /* \"#utility.yul\":14075:14084   */\n      not\n        /* \"#utility.yul\":14067:14073   */\n      dup5\n        /* \"#utility.yul\":14063:14085   */\n      and\n        /* \"#utility.yul\":14113:14150   */\n      tag_220\n        /* \"#utility.yul\":14145:14149   */\n      dup7\n        /* \"#utility.yul\":14113:14150   */\n      tag_58\n      jump\t// in\n    tag_220:\n        /* \"#utility.yul\":14172:14173   */\n      0x00\n        /* \"#utility.yul\":14186:14394   */\n    tag_221:\n        /* \"#utility.yul\":14200:14207   */\n      dup3\n        /* \"#utility.yul\":14197:14198   */\n      dup2\n        /* \"#utility.yul\":14194:14208   */\n      lt\n        /* \"#utility.yul\":14186:14394   */\n      iszero\n      tag_223\n      jumpi\n        /* \"#utility.yul\":14279:14288   */\n      dup5\n        /* \"#utility.yul\":14274:14277   */\n      dup10\n        /* \"#utility.yul\":14270:14289   */\n      add\n        /* \"#utility.yul\":14264:14290   */\n      mload\n        /* \"#utility.yul\":14256:14262   */\n      dup3\n        /* \"#utility.yul\":14249:14291   */\n      sstore\n        /* \"#utility.yul\":14330:14331   */\n      0x01\n        /* \"#utility.yul\":14322:14328   */\n      dup3\n        /* \"#utility.yul\":14318:14332   */\n      add\n        /* \"#utility.yul\":14308:14332   */\n      swap2\n      pop\n        /* \"#utility.yul\":14377:14379   */\n      0x20\n        /* \"#utility.yul\":14366:14375   */\n      dup6\n        /* \"#utility.yul\":14362:14380   */\n      add\n        /* \"#utility.yul\":14349:14380   */\n      swap5\n      pop\n        /* \"#utility.yul\":14223:14227   */\n      0x20\n        /* \"#utility.yul\":14220:14221   */\n      dup2\n        /* \"#utility.yul\":14216:14228   */\n      add\n        /* \"#utility.yul\":14211:14228   */\n      swap1\n      pop\n        /* \"#utility.yul\":14186:14394   */\n      jump(tag_221)\n    tag_223:\n        /* \"#utility.yul\":14422:14428   */\n      dup7\n        /* \"#utility.yul\":14413:14420   */\n      dup4\n        /* \"#utility.yul\":14410:14429   */\n      lt\n        /* \"#utility.yul\":14407:14586   */\n      iszero\n      tag_224\n      jumpi\n        /* \"#utility.yul\":14480:14489   */\n      dup5\n        /* \"#utility.yul\":14475:14478   */\n      dup10\n        /* \"#utility.yul\":14471:14490   */\n      add\n        /* \"#utility.yul\":14465:14491   */\n      mload\n        /* \"#utility.yul\":14523:14571   */\n      tag_225\n        /* \"#utility.yul\":14565:14569   */\n      0x1f\n        /* \"#utility.yul\":14557:14563   */\n      dup10\n        /* \"#utility.yul\":14553:14570   */\n      and\n        /* \"#utility.yul\":14542:14551   */\n      dup3\n        /* \"#utility.yul\":14523:14571   */\n      tag_71\n      jump\t// in\n    tag_225:\n        /* \"#utility.yul\":14515:14521   */\n      dup4\n        /* \"#utility.yul\":14508:14572   */\n      sstore\n        /* \"#utility.yul\":14430:14586   */\n      pop\n        /* \"#utility.yul\":14407:14586   */\n    tag_224:\n        /* \"#utility.yul\":14632:14633   */\n      0x01\n        /* \"#utility.yul\":14628:14629   */\n      0x02\n        /* \"#utility.yul\":14620:14626   */\n      dup9\n        /* \"#utility.yul\":14616:14630   */\n      mul\n        /* \"#utility.yul\":14612:14634   */\n      add\n        /* \"#utility.yul\":14606:14610   */\n      dup9\n        /* \"#utility.yul\":14599:14635   */\n      sstore\n        /* \"#utility.yul\":14034:14645   */\n      pop\n      pop\n      pop\n        /* \"#utility.yul\":13997:14884   */\n    tag_216:\n      pop\n        /* \"#utility.yul\":13587:14890   */\n      pop\n      pop\n      pop\n        /* \"#utility.yul\":13495:14890   */\n      pop\n      pop\n      jump\t// out\n\n    auxdata: 0xa26469706673582212204d3daed64dcbfe4192f9c477d57f083d80b16e3516a5a6dc683e37ffeec3c0a664736f6c63430008160033\n}\n",
				"bytecode": {
					"linkReferences": {},
					"object": "608060405234801561000f575f80fd5b5061093a8061001d5f395ff3fe608060405234801561000f575f80fd5b5060043610610034575f3560e01c80634040730e14610038578063fa6d481e14610068575b5f80fd5b610052600480360381019061004d91906102d1565b610084565b60405161005f9190610392565b60405180910390f35b610082600480360381019061007d91906103e5565b6100ad565b005b60608160405160200161009791906105ee565b6040516020818303038152906040529050919050565b5f80886040516100bd9190610625565b9081526020016040518091039020905087815f0190816100dd9190610835565b50868160010181905550858160020190816100f89190610835565b50848160030181905550835f896040516101129190610625565b9081526020016040518091039020600401908161012f9190610835565b50825f896040516101409190610625565b908152602001604051809103902060050181905550815f896040516101659190610625565b9081526020016040518091039020600601819055505050505050505050565b5f604051905090565b5f80fd5b5f80fd5b5f80fd5b5f80fd5b5f601f19601f8301169050919050565b7f4e487b71000000000000000000000000000000000000000000000000000000005f52604160045260245ffd5b6101e38261019d565b810181811067ffffffffffffffff82111715610202576102016101ad565b5b80604052505050565b5f610214610184565b905061022082826101da565b919050565b5f67ffffffffffffffff82111561023f5761023e6101ad565b5b6102488261019d565b9050602081019050919050565b828183375f83830152505050565b5f61027561027084610225565b61020b565b90508281526020810184848401111561029157610290610199565b5b61029c848285610255565b509392505050565b5f82601f8301126102b8576102b7610195565b5b81356102c8848260208601610263565b91505092915050565b5f602082840312156102e6576102e561018d565b5b5f82013567ffffffffffffffff81111561030357610302610191565b5b61030f848285016102a4565b91505092915050565b5f81519050919050565b5f82825260208201905092915050565b5f5b8381101561034f578082015181840152602081019050610334565b5f8484015250505050565b5f61036482610318565b61036e8185610322565b935061037e818560208601610332565b6103878161019d565b840191505092915050565b5f6020820190508181035f8301526103aa818461035a565b905092915050565b5f819050919050565b6103c4816103b2565b81146103ce575f80fd5b50565b5f813590506103df816103bb565b92915050565b5f805f805f805f60e0888a031215610400576103ff61018d565b5b5f88013567ffffffffffffffff81111561041d5761041c610191565b5b6104298a828b016102a4565b975050602061043a8a828b016103d1565b965050604088013567ffffffffffffffff81111561045b5761045a610191565b5b6104678a828b016102a4565b95505060606104788a828b016103d1565b945050608088013567ffffffffffffffff81111561049957610498610191565b5b6104a58a828b016102a4565b93505060a06104b68a828b016103d1565b92505060c06104c78a828b016103d1565b91505092959891949750929550565b5f81905092915050565b5f6104ea82610318565b6104f481856104d6565b9350610504818560208601610332565b80840191505092915050565b7f207375636365737366756c6c792076616363696e6564207769746820000000005f82015250565b5f610544601c836104d6565b915061054f82610510565b601c82019050919050565b7f66697273740000000000000000000000000000000000000000000000000000005f82015250565b5f61058e6005836104d6565b91506105998261055a565b600582019050919050565b7f20646f73650000000000000000000000000000000000000000000000000000005f82015250565b5f6105d86005836104d6565b91506105e3826105a4565b600582019050919050565b5f6105f982846104e0565b915061060482610538565b915061060f82610582565b915061061a826105cc565b915081905092915050565b5f61063082846104e0565b915081905092915050565b7f4e487b71000000000000000000000000000000000000000000000000000000005f52602260045260245ffd5b5f600282049050600182168061067f57607f821691505b6020821081036106925761069161063b565b5b50919050565b5f819050815f5260205f209050919050565b5f6020601f8301049050919050565b5f82821b905092915050565b5f600883026106f47fffffffffffffffffffffffffffffffffffffffffffffffffffffffffffffffff826106b9565b6106fe86836106b9565b95508019841693508086168417925050509392505050565b5f819050919050565b5f61073961073461072f846103b2565b610716565b6103b2565b9050919050565b5f819050919050565b6107528361071f565b61076661075e82610740565b8484546106c5565b825550505050565b5f90565b61077a61076e565b610785818484610749565b505050565b5b818110156107a85761079d5f82610772565b60018101905061078b565b5050565b601f8211156107ed576107be81610698565b6107c7846106aa565b810160208510156107d6578190505b6107ea6107e2856106aa565b83018261078a565b50505b505050565b5f82821c905092915050565b5f61080d5f19846008026107f2565b1980831691505092915050565b5f61082583836107fe565b9150826002028217905092915050565b61083e82610318565b67ffffffffffffffff811115610857576108566101ad565b5b6108618254610668565b61086c8282856107ac565b5f60209050601f83116001811461089d575f841561088b578287015190505b610895858261081a565b8655506108fc565b601f1984166108ab86610698565b5f5b828110156108d2578489015182556001820191506020850194506020810190506108ad565b868310156108ef57848901516108eb601f8916826107fe565b8355505b6001600288020188555050505b50505050505056fea26469706673582212204d3daed64dcbfe4192f9c477d57f083d80b16e3516a5a6dc683e37ffeec3c0a664736f6c63430008160033",
					"opcodes": "PUSH1 0x80 PUSH1 0x40 MSTORE CALLVALUE DUP1 ISZERO PUSH2 0xF JUMPI PUSH0 DUP1 REVERT JUMPDEST POP PUSH2 0x93A DUP1 PUSH2 0x1D PUSH0 CODECOPY PUSH0 RETURN INVALID PUSH1 0x80 PUSH1 0x40 MSTORE CALLVALUE DUP1 ISZERO PUSH2 0xF JUMPI PUSH0 DUP1 REVERT JUMPDEST POP PUSH1 0x4 CALLDATASIZE LT PUSH2 0x34 JUMPI PUSH0 CALLDATALOAD PUSH1 0xE0 SHR DUP1 PUSH4 0x4040730E EQ PUSH2 0x38 JUMPI DUP1 PUSH4 0xFA6D481E EQ PUSH2 0x68 JUMPI JUMPDEST PUSH0 DUP1 REVERT JUMPDEST PUSH2 0x52 PUSH1 0x4 DUP1 CALLDATASIZE SUB DUP2 ADD SWAP1 PUSH2 0x4D SWAP2 SWAP1 PUSH2 0x2D1 JUMP JUMPDEST PUSH2 0x84 JUMP JUMPDEST PUSH1 0x40 MLOAD PUSH2 0x5F SWAP2 SWAP1 PUSH2 0x392 JUMP JUMPDEST PUSH1 0x40 MLOAD DUP1 SWAP2 SUB SWAP1 RETURN JUMPDEST PUSH2 0x82 PUSH1 0x4 DUP1 CALLDATASIZE SUB DUP2 ADD SWAP1 PUSH2 0x7D SWAP2 SWAP1 PUSH2 0x3E5 JUMP JUMPDEST PUSH2 0xAD JUMP JUMPDEST STOP JUMPDEST PUSH1 0x60 DUP2 PUSH1 0x40 MLOAD PUSH1 0x20 ADD PUSH2 0x97 SWAP2 SWAP1 PUSH2 0x5EE JUMP JUMPDEST PUSH1 0x40 MLOAD PUSH1 0x20 DUP2 DUP4 SUB SUB DUP2 MSTORE SWAP1 PUSH1 0x40 MSTORE SWAP1 POP SWAP2 SWAP1 POP JUMP JUMPDEST PUSH0 DUP1 DUP9 PUSH1 0x40 MLOAD PUSH2 0xBD SWAP2 SWAP1 PUSH2 0x625 JUMP JUMPDEST SWAP1 DUP2 MSTORE PUSH1 0x20 ADD PUSH1 0x40 MLOAD DUP1 SWAP2 SUB SWAP1 KECCAK256 SWAP1 POP DUP8 DUP2 PUSH0 ADD SWAP1 DUP2 PUSH2 0xDD SWAP2 SWAP1 PUSH2 0x835 JUMP JUMPDEST POP DUP7 DUP2 PUSH1 0x1 ADD DUP2 SWAP1 SSTORE POP DUP6 DUP2 PUSH1 0x2 ADD SWAP1 DUP2 PUSH2 0xF8 SWAP2 SWAP1 PUSH2 0x835 JUMP JUMPDEST POP DUP5 DUP2 PUSH1 0x3 ADD DUP2 SWAP1 SSTORE POP DUP4 PUSH0 DUP10 PUSH1 0x40 MLOAD PUSH2 0x112 SWAP2 SWAP1 PUSH2 0x625 JUMP JUMPDEST SWAP1 DUP2 MSTORE PUSH1 0x20 ADD PUSH1 0x40 MLOAD DUP1 SWAP2 SUB SWAP1 KECCAK256 PUSH1 0x4 ADD SWAP1 DUP2 PUSH2 0x12F SWAP2 SWAP1 PUSH2 0x835 JUMP JUMPDEST POP DUP3 PUSH0 DUP10 PUSH1 0x40 MLOAD PUSH2 0x140 SWAP2 SWAP1 PUSH2 0x625 JUMP JUMPDEST SWAP1 DUP2 MSTORE PUSH1 0x20 ADD PUSH1 0x40 MLOAD DUP1 SWAP2 SUB SWAP1 KECCAK256 PUSH1 0x5 ADD DUP2 SWAP1 SSTORE POP DUP2 PUSH0 DUP10 PUSH1 0x40 MLOAD PUSH2 0x165 SWAP2 SWAP1 PUSH2 0x625 JUMP JUMPDEST SWAP1 DUP2 MSTORE PUSH1 0x20 ADD PUSH1 0x40 MLOAD DUP1 SWAP2 SUB SWAP1 KECCAK256 PUSH1 0x6 ADD DUP2 SWAP1 SSTORE POP POP POP POP POP POP POP POP POP JUMP JUMPDEST PUSH0 PUSH1 0x40 MLOAD SWAP1 POP SWAP1 JUMP JUMPDEST PUSH0 DUP1 REVERT JUMPDEST PUSH0 DUP1 REVERT JUMPDEST PUSH0 DUP1 REVERT JUMPDEST PUSH0 DUP1 REVERT JUMPDEST PUSH0 PUSH1 0x1F NOT PUSH1 0x1F DUP4 ADD AND SWAP1 POP SWAP2 SWAP1 POP JUMP JUMPDEST PUSH32 0x4E487B7100000000000000000000000000000000000000000000000000000000 PUSH0 MSTORE PUSH1 0x41 PUSH1 0x4 MSTORE PUSH1 0x24 PUSH0 REVERT JUMPDEST PUSH2 0x1E3 DUP3 PUSH2 0x19D JUMP JUMPDEST DUP2 ADD DUP2 DUP2 LT PUSH8 0xFFFFFFFFFFFFFFFF DUP3 GT OR ISZERO PUSH2 0x202 JUMPI PUSH2 0x201 PUSH2 0x1AD JUMP JUMPDEST JUMPDEST DUP1 PUSH1 0x40 MSTORE POP POP POP JUMP JUMPDEST PUSH0 PUSH2 0x214 PUSH2 0x184 JUMP JUMPDEST SWAP1 POP PUSH2 0x220 DUP3 DUP3 PUSH2 0x1DA JUMP JUMPDEST SWAP2 SWAP1 POP JUMP JUMPDEST PUSH0 PUSH8 0xFFFFFFFFFFFFFFFF DUP3 GT ISZERO PUSH2 0x23F JUMPI PUSH2 0x23E PUSH2 0x1AD JUMP JUMPDEST JUMPDEST PUSH2 0x248 DUP3 PUSH2 0x19D JUMP JUMPDEST SWAP1 POP PUSH1 0x20 DUP2 ADD SWAP1 POP SWAP2 SWAP1 POP JUMP JUMPDEST DUP3 DUP2 DUP4 CALLDATACOPY PUSH0 DUP4 DUP4 ADD MSTORE POP POP POP JUMP JUMPDEST PUSH0 PUSH2 0x275 PUSH2 0x270 DUP5 PUSH2 0x225 JUMP JUMPDEST PUSH2 0x20B JUMP JUMPDEST SWAP1 POP DUP3 DUP2 MSTORE PUSH1 0x20 DUP2 ADD DUP5 DUP5 DUP5 ADD GT ISZERO PUSH2 0x291 JUMPI PUSH2 0x290 PUSH2 0x199 JUMP JUMPDEST JUMPDEST PUSH2 0x29C DUP5 DUP3 DUP6 PUSH2 0x255 JUMP JUMPDEST POP SWAP4 SWAP3 POP POP POP JUMP JUMPDEST PUSH0 DUP3 PUSH1 0x1F DUP4 ADD SLT PUSH2 0x2B8 JUMPI PUSH2 0x2B7 PUSH2 0x195 JUMP JUMPDEST JUMPDEST DUP2 CALLDATALOAD PUSH2 0x2C8 DUP5 DUP3 PUSH1 0x20 DUP7 ADD PUSH2 0x263 JUMP JUMPDEST SWAP2 POP POP SWAP3 SWAP2 POP POP JUMP JUMPDEST PUSH0 PUSH1 0x20 DUP3 DUP5 SUB SLT ISZERO PUSH2 0x2E6 JUMPI PUSH2 0x2E5 PUSH2 0x18D JUMP JUMPDEST JUMPDEST PUSH0 DUP3 ADD CALLDATALOAD PUSH8 0xFFFFFFFFFFFFFFFF DUP2 GT ISZERO PUSH2 0x303 JUMPI PUSH2 0x302 PUSH2 0x191 JUMP JUMPDEST JUMPDEST PUSH2 0x30F DUP5 DUP3 DUP6 ADD PUSH2 0x2A4 JUMP JUMPDEST SWAP2 POP POP SWAP3 SWAP2 POP POP JUMP JUMPDEST PUSH0 DUP2 MLOAD SWAP1 POP SWAP2 SWAP1 POP JUMP JUMPDEST PUSH0 DUP3 DUP3 MSTORE PUSH1 0x20 DUP3 ADD SWAP1 POP SWAP3 SWAP2 POP POP JUMP JUMPDEST PUSH0 JUMPDEST DUP4 DUP2 LT ISZERO PUSH2 0x34F JUMPI DUP1 DUP3 ADD MLOAD DUP2 DUP5 ADD MSTORE PUSH1 0x20 DUP2 ADD SWAP1 POP PUSH2 0x334 JUMP JUMPDEST PUSH0 DUP5 DUP5 ADD MSTORE POP POP POP POP JUMP JUMPDEST PUSH0 PUSH2 0x364 DUP3 PUSH2 0x318 JUMP JUMPDEST PUSH2 0x36E DUP2 DUP6 PUSH2 0x322 JUMP JUMPDEST SWAP4 POP PUSH2 0x37E DUP2 DUP6 PUSH1 0x20 DUP7 ADD PUSH2 0x332 JUMP JUMPDEST PUSH2 0x387 DUP2 PUSH2 0x19D JUMP JUMPDEST DUP5 ADD SWAP2 POP POP SWAP3 SWAP2 POP POP JUMP JUMPDEST PUSH0 PUSH1 0x20 DUP3 ADD SWAP1 POP DUP2 DUP2 SUB PUSH0 DUP4 ADD MSTORE PUSH2 0x3AA DUP2 DUP5 PUSH2 0x35A JUMP JUMPDEST SWAP1 POP SWAP3 SWAP2 POP POP JUMP JUMPDEST PUSH0 DUP2 SWAP1 POP SWAP2 SWAP1 POP JUMP JUMPDEST PUSH2 0x3C4 DUP2 PUSH2 0x3B2 JUMP JUMPDEST DUP2 EQ PUSH2 0x3CE JUMPI PUSH0 DUP1 REVERT JUMPDEST POP JUMP JUMPDEST PUSH0 DUP2 CALLDATALOAD SWAP1 POP PUSH2 0x3DF DUP2 PUSH2 0x3BB JUMP JUMPDEST SWAP3 SWAP2 POP POP JUMP JUMPDEST PUSH0 DUP1 PUSH0 DUP1 PUSH0 DUP1 PUSH0 PUSH1 0xE0 DUP9 DUP11 SUB SLT ISZERO PUSH2 0x400 JUMPI PUSH2 0x3FF PUSH2 0x18D JUMP JUMPDEST JUMPDEST PUSH0 DUP9 ADD CALLDATALOAD PUSH8 0xFFFFFFFFFFFFFFFF DUP2 GT ISZERO PUSH2 0x41D JUMPI PUSH2 0x41C PUSH2 0x191 JUMP JUMPDEST JUMPDEST PUSH2 0x429 DUP11 DUP3 DUP12 ADD PUSH2 0x2A4 JUMP JUMPDEST SWAP8 POP POP PUSH1 0x20 PUSH2 0x43A DUP11 DUP3 DUP12 ADD PUSH2 0x3D1 JUMP JUMPDEST SWAP7 POP POP PUSH1 0x40 DUP9 ADD CALLDATALOAD PUSH8 0xFFFFFFFFFFFFFFFF DUP2 GT ISZERO PUSH2 0x45B JUMPI PUSH2 0x45A PUSH2 0x191 JUMP JUMPDEST JUMPDEST PUSH2 0x467 DUP11 DUP3 DUP12 ADD PUSH2 0x2A4 JUMP JUMPDEST SWAP6 POP POP PUSH1 0x60 PUSH2 0x478 DUP11 DUP3 DUP12 ADD PUSH2 0x3D1 JUMP JUMPDEST SWAP5 POP POP PUSH1 0x80 DUP9 ADD CALLDATALOAD PUSH8 0xFFFFFFFFFFFFFFFF DUP2 GT ISZERO PUSH2 0x499 JUMPI PUSH2 0x498 PUSH2 0x191 JUMP JUMPDEST JUMPDEST PUSH2 0x4A5 DUP11 DUP3 DUP12 ADD PUSH2 0x2A4 JUMP JUMPDEST SWAP4 POP POP PUSH1 0xA0 PUSH2 0x4B6 DUP11 DUP3 DUP12 ADD PUSH2 0x3D1 JUMP JUMPDEST SWAP3 POP POP PUSH1 0xC0 PUSH2 0x4C7 DUP11 DUP3 DUP12 ADD PUSH2 0x3D1 JUMP JUMPDEST SWAP2 POP POP SWAP3 SWAP6 SWAP9 SWAP2 SWAP5 SWAP8 POP SWAP3 SWAP6 POP JUMP JUMPDEST PUSH0 DUP2 SWAP1 POP SWAP3 SWAP2 POP POP JUMP JUMPDEST PUSH0 PUSH2 0x4EA DUP3 PUSH2 0x318 JUMP JUMPDEST PUSH2 0x4F4 DUP2 DUP6 PUSH2 0x4D6 JUMP JUMPDEST SWAP4 POP PUSH2 0x504 DUP2 DUP6 PUSH1 0x20 DUP7 ADD PUSH2 0x332 JUMP JUMPDEST DUP1 DUP5 ADD SWAP2 POP POP SWAP3 SWAP2 POP POP JUMP JUMPDEST PUSH32 0x207375636365737366756C6C792076616363696E656420776974682000000000 PUSH0 DUP3 ADD MSTORE POP JUMP JUMPDEST PUSH0 PUSH2 0x544 PUSH1 0x1C DUP4 PUSH2 0x4D6 JUMP JUMPDEST SWAP2 POP PUSH2 0x54F DUP3 PUSH2 0x510 JUMP JUMPDEST PUSH1 0x1C DUP3 ADD SWAP1 POP SWAP2 SWAP1 POP JUMP JUMPDEST PUSH32 0x6669727374000000000000000000000000000000000000000000000000000000 PUSH0 DUP3 ADD MSTORE POP JUMP JUMPDEST PUSH0 PUSH2 0x58E PUSH1 0x5 DUP4 PUSH2 0x4D6 JUMP JUMPDEST SWAP2 POP PUSH2 0x599 DUP3 PUSH2 0x55A JUMP JUMPDEST PUSH1 0x5 DUP3 ADD SWAP1 POP SWAP2 SWAP1 POP JUMP JUMPDEST PUSH32 0x20646F7365000000000000000000000000000000000000000000000000000000 PUSH0 DUP3 ADD MSTORE POP JUMP JUMPDEST PUSH0 PUSH2 0x5D8 PUSH1 0x5 DUP4 PUSH2 0x4D6 JUMP JUMPDEST SWAP2 POP PUSH2 0x5E3 DUP3 PUSH2 0x5A4 JUMP JUMPDEST PUSH1 0x5 DUP3 ADD SWAP1 POP SWAP2 SWAP1 POP JUMP JUMPDEST PUSH0 PUSH2 0x5F9 DUP3 DUP5 PUSH2 0x4E0 JUMP JUMPDEST SWAP2 POP PUSH2 0x604 DUP3 PUSH2 0x538 JUMP JUMPDEST SWAP2 POP PUSH2 0x60F DUP3 PUSH2 0x582 JUMP JUMPDEST SWAP2 POP PUSH2 0x61A DUP3 PUSH2 0x5CC JUMP JUMPDEST SWAP2 POP DUP2 SWAP1 POP SWAP3 SWAP2 POP POP JUMP JUMPDEST PUSH0 PUSH2 0x630 DUP3 DUP5 PUSH2 0x4E0 JUMP JUMPDEST SWAP2 POP DUP2 SWAP1 POP SWAP3 SWAP2 POP POP JUMP JUMPDEST PUSH32 0x4E487B7100000000000000000000000000000000000000000000000000000000 PUSH0 MSTORE PUSH1 0x22 PUSH1 0x4 MSTORE PUSH1 0x24 PUSH0 REVERT JUMPDEST PUSH0 PUSH1 0x2 DUP3 DIV SWAP1 POP PUSH1 0x1 DUP3 AND DUP1 PUSH2 0x67F JUMPI PUSH1 0x7F DUP3 AND SWAP2 POP JUMPDEST PUSH1 0x20 DUP3 LT DUP2 SUB PUSH2 0x692 JUMPI PUSH2 0x691 PUSH2 0x63B JUMP JUMPDEST JUMPDEST POP SWAP2 SWAP1 POP JUMP JUMPDEST PUSH0 DUP2 SWAP1 POP DUP2 PUSH0 MSTORE PUSH1 0x20 PUSH0 KECCAK256 SWAP1 POP SWAP2 SWAP1 POP JUMP JUMPDEST PUSH0 PUSH1 0x20 PUSH1 0x1F DUP4 ADD DIV SWAP1 POP SWAP2 SWAP1 POP JUMP JUMPDEST PUSH0 DUP3 DUP3 SHL SWAP1 POP SWAP3 SWAP2 POP POP JUMP JUMPDEST PUSH0 PUSH1 0x8 DUP4 MUL PUSH2 0x6F4 PUSH32 0xFFFFFFFFFFFFFFFFFFFFFFFFFFFFFFFFFFFFFFFFFFFFFFFFFFFFFFFFFFFFFFFF DUP3 PUSH2 0x6B9 JUMP JUMPDEST PUSH2 0x6FE DUP7 DUP4 PUSH2 0x6B9 JUMP JUMPDEST SWAP6 POP DUP1 NOT DUP5 AND SWAP4 POP DUP1 DUP7 AND DUP5 OR SWAP3 POP POP POP SWAP4 SWAP3 POP POP POP JUMP JUMPDEST PUSH0 DUP2 SWAP1 POP SWAP2 SWAP1 POP JUMP JUMPDEST PUSH0 PUSH2 0x739 PUSH2 0x734 PUSH2 0x72F DUP5 PUSH2 0x3B2 JUMP JUMPDEST PUSH2 0x716 JUMP JUMPDEST PUSH2 0x3B2 JUMP JUMPDEST SWAP1 POP SWAP2 SWAP1 POP JUMP JUMPDEST PUSH0 DUP2 SWAP1 POP SWAP2 SWAP1 POP JUMP JUMPDEST PUSH2 0x752 DUP4 PUSH2 0x71F JUMP JUMPDEST PUSH2 0x766 PUSH2 0x75E DUP3 PUSH2 0x740 JUMP JUMPDEST DUP5 DUP5 SLOAD PUSH2 0x6C5 JUMP JUMPDEST DUP3 SSTORE POP POP POP POP JUMP JUMPDEST PUSH0 SWAP1 JUMP JUMPDEST PUSH2 0x77A PUSH2 0x76E JUMP JUMPDEST PUSH2 0x785 DUP2 DUP5 DUP5 PUSH2 0x749 JUMP JUMPDEST POP POP POP JUMP JUMPDEST JUMPDEST DUP2 DUP2 LT ISZERO PUSH2 0x7A8 JUMPI PUSH2 0x79D PUSH0 DUP3 PUSH2 0x772 JUMP JUMPDEST PUSH1 0x1 DUP2 ADD SWAP1 POP PUSH2 0x78B JUMP JUMPDEST POP POP JUMP JUMPDEST PUSH1 0x1F DUP3 GT ISZERO PUSH2 0x7ED JUMPI PUSH2 0x7BE DUP2 PUSH2 0x698 JUMP JUMPDEST PUSH2 0x7C7 DUP5 PUSH2 0x6AA JUMP JUMPDEST DUP2 ADD PUSH1 0x20 DUP6 LT ISZERO PUSH2 0x7D6 JUMPI DUP2 SWAP1 POP JUMPDEST PUSH2 0x7EA PUSH2 0x7E2 DUP6 PUSH2 0x6AA JUMP JUMPDEST DUP4 ADD DUP3 PUSH2 0x78A JUMP JUMPDEST POP POP JUMPDEST POP POP POP JUMP JUMPDEST PUSH0 DUP3 DUP3 SHR SWAP1 POP SWAP3 SWAP2 POP POP JUMP JUMPDEST PUSH0 PUSH2 0x80D PUSH0 NOT DUP5 PUSH1 0x8 MUL PUSH2 0x7F2 JUMP JUMPDEST NOT DUP1 DUP4 AND SWAP2 POP POP SWAP3 SWAP2 POP POP JUMP JUMPDEST PUSH0 PUSH2 0x825 DUP4 DUP4 PUSH2 0x7FE JUMP JUMPDEST SWAP2 POP DUP3 PUSH1 0x2 MUL DUP3 OR SWAP1 POP SWAP3 SWAP2 POP POP JUMP JUMPDEST PUSH2 0x83E DUP3 PUSH2 0x318 JUMP JUMPDEST PUSH8 0xFFFFFFFFFFFFFFFF DUP2 GT ISZERO PUSH2 0x857 JUMPI PUSH2 0x856 PUSH2 0x1AD JUMP JUMPDEST JUMPDEST PUSH2 0x861 DUP3 SLOAD PUSH2 0x668 JUMP JUMPDEST PUSH2 0x86C DUP3 DUP3 DUP6 PUSH2 0x7AC JUMP JUMPDEST PUSH0 PUSH1 0x20 SWAP1 POP PUSH1 0x1F DUP4 GT PUSH1 0x1 DUP2 EQ PUSH2 0x89D JUMPI PUSH0 DUP5 ISZERO PUSH2 0x88B JUMPI DUP3 DUP8 ADD MLOAD SWAP1 POP JUMPDEST PUSH2 0x895 DUP6 DUP3 PUSH2 0x81A JUMP JUMPDEST DUP7 SSTORE POP PUSH2 0x8FC JUMP JUMPDEST PUSH1 0x1F NOT DUP5 AND PUSH2 0x8AB DUP7 PUSH2 0x698 JUMP JUMPDEST PUSH0 JUMPDEST DUP3 DUP2 LT ISZERO PUSH2 0x8D2 JUMPI DUP5 DUP10 ADD MLOAD DUP3 SSTORE PUSH1 0x1 DUP3 ADD SWAP2 POP PUSH1 0x20 DUP6 ADD SWAP5 POP PUSH1 0x20 DUP2 ADD SWAP1 POP PUSH2 0x8AD JUMP JUMPDEST DUP7 DUP4 LT ISZERO PUSH2 0x8EF JUMPI DUP5 DUP10 ADD MLOAD PUSH2 0x8EB PUSH1 0x1F DUP10 AND DUP3 PUSH2 0x7FE JUMP JUMPDEST DUP4 SSTORE POP JUMPDEST PUSH1 0x1 PUSH1 0x2 DUP9 MUL ADD DUP9 SSTORE POP POP POP JUMPDEST POP POP POP POP POP POP JUMP INVALID LOG2 PUSH5 0x6970667358 0x22 SLT KECCAK256 0x4D RETURNDATASIZE 0xAE 0xD6 0x4D 0xCB INVALID COINBASE SWAP3 0xF9 0xC4 PUSH24 0xD57F083D80B16E3516A5A6DC683E37FFEEC3C0A664736F6C PUSH4 0x43000816 STOP CALLER "
				},
				"gasEstimates": {
					"creation": {
						"codeDepositCost": "472400",
						"executionCost": "503",
						"totalCost": "472903"
					},
					"external": {
						"addReceipientWithForFirstDose(string,uint256,string,uint256,string,uint256,uint256)": "infinite",
						"updateVaccineDosage(string)": "infinite"
					}
				},
				"methodIdentifiers": {
					"addReceipientWithForFirstDose(string,uint256,string,uint256,string,uint256,uint256)": "fa6d481e",
					"updateVaccineDosage(string)": "4040730e"
				}
			},
			"storageLayout": {
				"storage": [
					{
						"astId": 24,
						"contract": "contracts/CovidNaccineTracker.sol:CovidVaccineTracker",
						"label": "beneficiaries",
						"offset": 0,
						"slot": "0",
						"type": "t_mapping(t_string_memory_ptr,t_struct(Beneficiary)19_storage)"
					}
				],
				"types": {
					"t_enum(DoseNumber)27": {
						"encoding": "inplace",
						"label": "enum CovidVaccineTracker.DoseNumber",
						"numberOfBytes": "1"
					},
					"t_mapping(t_string_memory_ptr,t_struct(Beneficiary)19_storage)": {
						"encoding": "mapping",
						"key": "t_string_memory_ptr",
						"label": "mapping(string => struct CovidVaccineTracker.Beneficiary)",
						"numberOfBytes": "32",
						"value": "t_struct(Beneficiary)19_storage"
					},
					"t_string_memory_ptr": {
						"encoding": "bytes",
						"label": "string",
						"numberOfBytes": "32"
					},
					"t_string_storage": {
						"encoding": "bytes",
						"label": "string",
						"numberOfBytes": "32"
					},
					"t_struct(Beneficiary)19_storage": {
						"encoding": "inplace",
						"label": "struct CovidVaccineTracker.Beneficiary",
						"members": [
							{
								"astId": 3,
								"contract": "contracts/CovidNaccineTracker.sol:CovidVaccineTracker",
								"label": "beneficiaryName",
								"offset": 0,
								"slot": "0",
								"type": "t_string_storage"
							},
							{
								"astId": 5,
								"contract": "contracts/CovidNaccineTracker.sol:CovidVaccineTracker",
								"label": "bAge",
								"offset": 0,
								"slot": "1",
								"type": "t_uint256"
							},
							{
								"astId": 7,
								"contract": "contracts/CovidNaccineTracker.sol:CovidVaccineTracker",
								"label": "bGender",
								"offset": 0,
								"slot": "2",
								"type": "t_string_storage"
							},
							{
								"astId": 9,
								"contract": "contracts/CovidNaccineTracker.sol:CovidVaccineTracker",
								"label": "bIdProof",
								"offset": 0,
								"slot": "3",
								"type": "t_uint256"
							},
							{
								"astId": 11,
								"contract": "contracts/CovidNaccineTracker.sol:CovidVaccineTracker",
								"label": "bVaccineName",
								"offset": 0,
								"slot": "4",
								"type": "t_string_storage"
							},
							{
								"astId": 13,
								"contract": "contracts/CovidNaccineTracker.sol:CovidVaccineTracker",
								"label": "vaccineReferenceId",
								"offset": 0,
								"slot": "5",
								"type": "t_uint256"
							},
							{
								"astId": 15,
								"contract": "contracts/CovidNaccineTracker.sol:CovidVaccineTracker",
								"label": "bDateOfVaccine",
								"offset": 0,
								"slot": "6",
								"type": "t_uint256"
							},
							{
								"astId": 18,
								"contract": "contracts/CovidNaccineTracker.sol:CovidVaccineTracker",
								"label": "bDoseNumber",
								"offset": 0,
								"slot": "7",
								"type": "t_enum(DoseNumber)27"
							}
						],
						"numberOfBytes": "256"
					},
					"t_uint256": {
						"encoding": "inplace",
						"label": "uint256",
						"numberOfBytes": "32"
					}
				}
			},
			"userdoc": {
				"kind": "user",
				"methods": {},
				"version": 1
			}
		}
	}
}